:040800005BEF04F0B6
:10081800D8CF05F0E8CF06F0E0CF07F0F2A401D07A
:1008280001D03ED0FB0E026E1D0E016E8EEC18F04C
:100838000001664B672B644B652B010E6027000E89
:100848006123000E6223000E632382A001D001D031
:1008580002D06E6B01D06E2B582A5650020AD8A4CB
:1008680001D001D00ED0640E586401D001D009D057
:1008780082A201D001D002D0829201D08282586A2D
:100888000ED05604D8A401D001D003D08282586A71
:1008980006D0566601D001D002D08292586AF294EE
:1008A80007C0E0FF06C0E8FF05C0D8FF1000A1EFB1
:0208B80017F037
:100F00007777772E6575726F736F757263652E7361
:100F1000652F6F64657373613030312E786D6C00AE
:100F2000000078517711D8A41200E6D212001CEF0D
:100F300017F0BFEF17F0BFEF16F075510F0B020A55
:100F4000D8A41200705120EE7BF0DF621200800EF8
:100F50007C6111D07C51B3EC14F000018A6F7CC02D
:100F600089F0030E846F820E836F856B866B0A0E89
:100F7000876FD7EF16F07C5104EC0DF0EED775516A
:100F80000F0B030AD8A41200705120EE7BF0DF6231
:100F90001200800E7C6106D07DC015F07C51AEEC55
:100FA00010F0DBD77DC010F07C51D4EC11F0D5D718
:100FB000705120EE7BF0DF621200000E72EC18F030
:100FC00000017D19D8A41200030E72EC18F0000184
:100FD0007E19D8A41200050E72EC18F000017F19DA
:100FE000D8A41200070E72EC18F000018019D8A4E2
:100FF000120053508119D8A41200525020EE82F0F2
:10100000DF6212007C51CEEF17F0000E72EC18F088
:1010100000017C1973E1010E72EC18F000017D19DA
:101020006DE1020E72EC18F000017E1967E1030E0B
:1010300072EC18F000017F1961E16C895FD0040E39
:1010400072EC18F000017C1959E1050E72EC18F0F1
:1010500000017D1953E1060E72EC18F000017E19B3
:101060004DE1070E72EC18F000017F1947E16C8B1F
:1010700045D0080E72EC18F000017C193FE1090E12
:1010800072EC18F000017D1939E10A0E72EC18F0CB
:1010900000017E1933E10B0E72EC18F000017F198C
:1010A0002DE16C8D2BD00C0E72EC18F000017C1928
:1010B00025E10D0E72EC18F000017D191FE10E0EF6
:1010C00072EC18F000017E1919E10F0E72EC18F0A5
:1010D00000017F1913E16C8F11D06C6B0FD07B393D
:1010E0000F0BA56FA66BA651F8E1A5518EE0010A82
:1010F000A6E0030ABEE0010AD6E0EFD76C51F00B80
:10110000F00AD8B413EC16F01200705120EE7BF008
:10111000DF621200B16B7CC0B0F07DC0B3F0BF6B7A
:1011200048D0070E086EBF5131EC17F00001A56FD3
:10113000A5518A0FD96EDA6AB051BF253DEC18F07F
:10114000DF6E070E086E0001BF5131EC17F0060A82
:101150000BE0FF0E0001B325A56FA66BFF0EA623C3
:10116000BF51A519A61124E1070E086E0001BF5159
:1011700031EC17F0060A03E1070E000109D0070E53
:10118000086E0001BF5131EC17F00001A56FA529D1
:10119000B26FB251810F836F070E846F856B866BC0
:1011A0001A0E876FB1C089F0D7EC16F00001B12B91
:1011B000BF2BB351BF5DD8B01200B3D7705120EE32
:1011C0007BF0DF6212007CC0B4F07551FE0F070B9C
:1011D000B56FBA6B16D0BA517D0FD96EDA6ADF508F
:1011E000186EB451BA25B0EC17F00001BA518A0F4D
:1011F000D96EDA6AB451BA253DEC18F0DF6E000101
:10120000BA2BB551BA5DE7E3070E846F856B866B29
:101210001A0E876F896BB551810F836FD7EF16F068
:10122000705120EE7BF0DF6212007C51B3EC14F0C1
:101230000001A56FA529156E7C51AEEC10F08DD67E
:10124000705120EE7BF0DF6212007C51B3EC14F0A1
:101250000001A56FA505156E7C51AEEC10F07DD692
:101260007B51701903E07B29D8A41200B96B030EDF
:10127000846F880E836F856B866B200E876FBE6BC5
:10128000BEC089F0010EC06FC051890FD96EDA6AF5
:10129000B9510F0872EC18F0DF6E0001B92B100E77
:1012A000B96501D004D0C02B070EC065EDD7100E74
:1012B000B96501D007D0D7EC16F00001BE2B020EA5
:1012C000BE65DED7C06BC05109EC18F0000908E01C
:1012D000C0518C0FD96EDA6AC05109EC18F005D0F4
:1012E000C0518C0FD96EDA6A000EDF6EC02B040E6F
:1012F000C065E9D7D7EC16F0050E0001B96F030EF3
:10130000BE6FBEC089F0010EC06FC051890FD96E8B
:10131000DA6AB95109EC18F0DF6EB92BC02B070E51
:10132000C065F3D7D7EC16F00001BE2B060EBE65E4
:10133000E8D7060C705120EE7BF0DF621200030E3E
:10134000846F870E836F856B866B220E876F890E85
:1013500048EC18F0D7EF16F0705120EE7BF0DF620A
:101360001200BB6B75C0A5F00F0EA517040EA55D8E
:1013700012E37FC0BCF0BD6BBD51BC1103E1010E97
:10138000BD6FBC6B010EBC5D010EBD5907E3010EC4
:10139000BD6F000E02D0BD6B010EBC6F52C0ACF031
:1013A00053C0ADF07D517CC0A5F0A66BA5C0A6F0E2
:1013B000A56BA511526EA651536E070E846F856BF7
:1013C000866B270E876F896B7CC08AF07DC08BF09F
:1013D000BB51BC5DA56F000EBD59A66F040EA55D87
:1013E000000EA65902E3040E02D0BB51BC5DB66FDD
:1013F000B651840F836F7E51BB258C6FB76B0CD0B9
:10140000B7518D0FD96EDA6A7E51BB25B7253DECF9
:1014100018F0DF6E0001B72BB651B75DF1E3D7ECE2
:1014200016F00001B651BB27892BBB51A56FA66BE7
:10143000BC51A55DBD51A659CBE3ACC052F0ADC0C7
:1014400053F01200705120EE7BF0DF62120052C0A8
:10145000AEF053C0AFF07D517CC0A5F0A66BA5C027
:10146000A6F0A56BA511526EA651536E7EC0B8F0C2
:1014700012D07E518D08B825D96EDA6A7E517F0868
:10148000B825E16EE26AE750186EB851B0EC17F07B
:10149000DF6E0001B82B75510F0BA56FA66B7E5147
:1014A000A527000EA623FC0EA525A76FFF0EA621DB
:1014B000A86FB851A96FAA6BAA51800AAB6FA75148
:1014C000A95DA851800AAB59D4E3AEC052F0AFC0B9
:1014D00053F0070E846F75510F0B800F836F856B70
:1014E000866B270E876F896B7CC08AF07DC08BF07E
:1014F0007EC08CF0D7EF16F07951010A01E116D5C4
:10150000030A01E114D5040A01E113D50E0A01E131
:1015100012D5010A01E111D5020A01E130D5070A0D
:1015200001E146D51B0A01E1DAD50F0A01E1EDD54B
:10153000010A01E143D6040A01E172D6030A01E17E
:101540007FD6010A01E18CD63E0A01E1F3D6040AF6
:1015500001E102D7030AD8A4120074D70001785120
:101560007711D8B41200B56BB551A76FA86BD8909E
:10157000A737A837D890A737A837D890A737A83764
:101580003A0EA725086E000EA821096E25EC18F06A
:101590000001B46FB4AF36D1B4AD18D0B551A76F58
:1015A000A86BD890A737A837D890A737A837D89076
:1015B000A737A837390EA725086E000EA821096E97
:1015C00025EC18F000017A1901E01CD1B4A90BD068
:1015D0007C2909E0096A220E086E25EC18F000014A
:1015E0007C1901E00FD1B4A70BD07D2909E0096A6D
:1015F000220E086E25EC18F000017D1901E002D1E1
:10160000B551080D3C0EF324086E000EF420096E4F
:1016100025EC18F00001A76FB451010BA96FA86B5E
:10162000A751A825AA6F000EA921AB6FB551080DCF
:101630003B0EF324086E000EF420096E25EC18F022
:101640000001A76FB451020BA96FA86BA751A82581
:10165000AC6F000EA921AD6FB551A76FA86BD890E4
:10166000A737A837D890A737A837D890A737A83773
:101670003E0EA725086E000EA821096E25EC18F075
:101680000001AE6FB551A76FA86BD890A737A837E8
:10169000D890A737A837D890A737A8373D0EA725E9
:1016A000086E000EA821096E25EC18F00001AF6F3E
:1016B00020EE77F0DECFA7F0DDCFA8F0AA51A71B70
:1016C000AB51A81BAC51A717AD51A817A851A71132
:1016D00001E098D07951AE19AF1575E093D00001B3
:1016E000B551A76FA86BD890A737A837D890A73760
:1016F000A837D890A737A837400EA725086E000E48
:10170000A821096E25EC18F00001B06FB0C04FF0B1
:10171000B45130EC13F076D00001B551A76FA86B2F
:10172000D890A737A837D890A737A837D890A73729
:10173000A837400EA725086E000EA821096E25ECDB
:1017400018F00001B16FB1C04FF0B451C8EC12F005
:1017500059D00001B551A76FA86BD890A737A8370B
:10176000D890A737A837D890A737A837400EA72515
:10177000086E000EA821096E25EC18F00001B26F6A
:10178000B2C04FF0B451A7EC16F03CD00001B551F7
:10179000A76FA86BD890A737A837D890A737A837D6
:1017A000D890A737A837400EA725086E000EA821AD
:1017B000096E25EC18F00001B36FB3C04FF0B451BF
:1017C0008FEC16F01FD0B551A76FA86BD890A73734
:1017D000A837D890A737A837D890A737A8373F0E93
:1017E000A725086E000EA821096E25EC18F0000A46
:1017F00009E0010A01E173D7030A8EE0010AA9E0BA
:10180000070AC4E00001B52B070EB565ADD6070C7D
:10181000E8CF14F0546A7250C00B166E166630D0C2
:1018200060AE12D0779071AE06D01150D96EDA6AE0
:10183000000EDB86719E60A002D0548001D05490CF
:101840000F0E196E600E1AD00F0130AF000C779298
:1018500071AC06D01150D96EDA6A000EDB86719C2D
:101860003051070B546E020E546005D01150D96EE2
:10187000DA6A000EDB8E0F0E196E300E186E5BD01A
:101880001650400A3EE160AE04D00F0E196E600E95
:1018900036D00F0130AF04D00F0E196E300E2FD09E
:1018A0000E017DA580AF04D00E0E196E800E27D0DC
:1018B0000E017DA790AF04D00E0E196E900E1FD0B2
:1018C0000E017DA9A0AF04D00E0E196EA00E17D088
:1018D0000E017DABB0AF04D00E0E196EB00E0FD05E
:1018E0000E017DADC0AF04D00E0E196EC00E07D034
:1018F0000E017DAFD0AF000C0E0E196ED00E186E1B
:101900000AD071AE000C6F50070B46EC15F008C002
:1019100018F009C019F018C0D9FF19C0DAFFDF505C
:101920001F0B546E779271AC06D01150D96EDA6AE3
:10193000000EDB86719C18C012F019C013F0115014
:10194000D96EDA6ADF6A20EE05F01850D9261950F0
:10195000DA22DF50176E1050D96EDA6A17500F0B6B
:10196000DF6E17AC05D01150D96EDA6A000EDB8C31
:1019700020EE02F01850D9261950DA22DF50176EE7
:1019800017A608D01150D96EDA6A000EDB8A010E54
:10199000176E01D0176A1828086E000E1920096EFC
:1019A00014C00AF017C00BF054EC0FF0060E182606
:1019B000000E19221050D96EDA6ADF50176E156AC0
:1019C0000DD018C0D9FF19C0DAFF0F50E16EE26ADE
:1019D000DFCFE7FF184A192A0F2A152A1750155C7E
:1019E000F0E377AE06D01150D96EDA6A000EDB88CC
:1019F000779E12C0D9FF13C0DAFF7F0EDF16165094
:101A0000800AD8B4719E010CE8CF1CF01B6A1C50F0
:101A1000800A04E16BC01BF06B6BCCD01C50810AB8
:101A200002E1010E82D01C50820A02E1060E7DD036
:101A30001C50830A03E155C01BF0BCD01C50940A13
:101A400003E1C2EC18F071D01C50950A03E1C1EC1F
:101A500018F06BD01C50960A03E1C0EC18F065D06A
:101A6000890E1C6005D01C507C0F68EC18F05DD00E
:101A7000880E1C6408D0910E1C6005D01C50770F96
:101A80005EEC18F052D01C50910A03E170C01BF0BC
:101A900091D01C50930A03E152C01BF08BD01C5014
:101AA000920A02E1535041D01C50970A03E1BFEC67
:101AB00018F03BD01C50980A03E1BEEC18F035D06A
:101AC0001C50990A03E1BDEC18F02FD0990E1C644C
:101AD0002ED09E0E1C602BD0A6EC18F00BC014F07C
:101AE0000AC013F009C012F008C011F01C50660FB4
:101AF000196E195003080C6ED8900C36D8900C361D
:101B0000D8900C360C5011C00DF012C00EF013C05E
:101B10000FF014C010F0E82A05D0D89010320F3220
:101B20000E320D32E82EF9D730D01B6E43D09D0E09
:101B30001C642DD0A20E1C602AD0A1EC18F00BC0A2
:101B400018F00AC017F009C016F008C015F01C50B4
:101B5000620F1A6E1A5003080C6ED8900C36D8908B
:101B60000C36D8900C360C5015C00DF016C00EF087
:101B700017C00FF018C010F0E82A05D0D890103226
:101B80000F320E320D32E82EF9D70D50CED7CF0ED0
:101B90001C6408D0E00E1C6005D01C50300F72ECA5
:101BA00018F0C3D7DF0E1C6405D01C50200F09ECC1
:101BB00018F0BBD71B501200E8CF13F0146AB9D04D
:101BC000010E11A0000E126E123212328250121843
:101BD0007F0B1218826E010E11A2000E126E123AC5
:101BE0001246124682501218BF0B1218826E010E56
:101BF00011A4000E126E124612461246825012189E
:101C0000F70B1218826E010E11A6000E126E123A18
:101C100082501218EF0B1218826E010E11A8000EDE
:101C2000126E123A124682501218DF0B1218826E90
:101C3000010E11AA000E126E80501218FE0B12181F
:101C4000806E010E11AC000E126E124680501218FA
:101C5000FD0B1218806E010E11AE000E126E1246B0
:101C6000124680501218FB0B1218806E000E5CECAE
:101C700012F05DD0010E11A0000E126E1246124637
:101C8000124680501218F70B1218806E010E11A226
:101C9000000E126E123A124680501218DF0B121804
:101CA000806E010E11A8000E126E123A81501218A9
:101CB000EF0B1218816E010E11AA000E126E124661
:101CC000124682501218FB0B1218826E010E11ACD4
:101CD000000E126E124681501218FD0B1218816E02
:101CE000010E11AE000E126E81501218FE0B12186A
:101CF000816E010E5CEC12F01AD0010E11A0000EE4
:101D0000126E123A1246124681501218BF0B121868
:101D1000816E010E11A2000E126E123A124681500F
:101D20001218DF0B1218816E020E5CEC12F0146EAA
:101D300007D0135001E144D7010A9CE0030ADDE01B
:101D4000145012000F0E1C6E200E1B6E0F0E1E6E16
:101D5000100E1D6E0F0E206E1F6A0E010E0E226EEB
:101D6000800E216E0E0E246E900E236E0E0E266EC9
:101D7000A00E256E0E0E286EB00E276E0E0E2A6E69
:101D8000C00E296E0E0E2C6ED00E2B6E7250C00B34
:101D90002D6E2D6602D0020E01D0080E2E6ED89048
:101DA0007D31306E346A7CD03450020DF3501B0FFD
:101DB000D96EDA6ADECF35F0DDCF36F035C031F0DE
:101DC00036C032F0020E346404D0D890303230A0E5
:101DD00066D035C0D9FF36C0DAFFDF501A6E1AB6AA
:101DE0005ED035C0D9FF36C0DAFFFC0EDF1619C051
:101DF0001AF0030E1A1635C0D9FF36C0DAFF1A5092
:101E0000DF1219AC04D018504009336E02D018C04C
:101E100033F020EE05F03550D9263650DA2233C0A3
:101E2000DFFF19AA03D0010E336E01D0336A3528C3
:101E3000086E000E3620096E12C00AF013C00BF0B7
:101E400014C00CF015C00DF033C00EF006EC10F00D
:101E5000060E3526000E36222F6A0FD016C0D9FF87
:101E600017C0DAFF35C0E1FF36C0E2FFDFCFE7FF82
:101E7000164A172A354A362A2F2A18502F5CEEE3C5
:101E800031C0D9FF32C0DAFFDF501A6E1AB4010C2C
:101E900031C0D9FF32C0DAFF000EDB86010C342AD4
:101EA0002E50345C81E3000C0AC00EF00B6646D065
:101EB0000E50D96EDA6A08C0E1FF09C0E2FFE750B0
:101EC0000C6ED8900C36D8900C36D8900C34DF6E4F
:101ED0000E50D96EDA6AD92ADA6A08C0E1FF09C061
:101EE000E2FFE7500C6E050E0D6ED8900C320D2EF1
:101EF000FCD70C50DF6E084A092A08C0D9FF09C078
:101F0000DAFFDF500C6E050E0D6ED8900C320D2EE0
:101F1000FCD70E50D96EDA6A0C50DF120E50D96E13
:101F2000DA6A020ED926DA6ADF6A0E50D96EDA6AE8
:101F3000030ED926DA6A000EDF6E000C0E50D96E41
:101F4000DA6A020ED926DA6A08C0E1FF09C0E2FFA8
:101F5000E7500C6E050E0D6ED8900C360D2EFCD78A
:101F60000C50DF6E0E50D96EDA6A030ED926DA6A8B
:101F700008C0E1FF09C0E2FFE7500C6ED8900C32B8
:101F8000D8900C32D8900C30DF6E084A092A08C06D
:101F9000D9FF09C0DAFFDF500C6E030E0C160E508D
:101FA000D96EDA6A020ED926DA6A0C50DF1208C03E
:101FB000D9FF09C0DAFFDF500C6ED8900C32D890F0
:101FC0000C32D8900C321C0E0C160E50D96EDA6AF8
:101FD000020ED926DA6A0C50DF12084A092A08C014
:101FE000D9FF09C0DAFF0E50E16EE26AE12AE26A27
:101FF000DFCFE7FF084A092A08C0D9FF09C0DAFF86
:102000000E50E16EE26ADFCFE7FF12000A0E116E9A
:102010000E6637D01150D96EDA6ADF500F6ED89045
:102020000F32D8900F32D8900F3008C0D9FF09C0B6
:10203000DAFFDF6E1150D96EDA6AD92ADA6ADF5018
:102040000F6E050E106ED8900F36102EFCD708C0FC
:10205000D9FF09C0DAFF0F50DF12084A092A1150D0
:10206000D96EDA6ADF500F6E050E106ED8900F36FB
:10207000102EFCD70F5008C0D9FF09C0DAFFDF6E61
:1020800012001150D96EDA6A020ED926DA6ADF50D0
:102090000F6E050E106ED8900F32102EFCD70F5019
:1020A00008C0D9FF09C0DAFFDF6E1150D96EDA6AB5
:1020B000030ED926DA6ADF500F6ED8900F36D8900B
:1020C0000F36D8900F3608C0D9FF09C0DAFF0F507D
:1020D000DF12084A092A1150D96EDA6A020ED9268F
:1020E000DA6ADF500F6ED8900F36D8900F36D8903E
:1020F0000F34E00B08C0D9FF09C0DAFFDF6E08C05B
:10210000D9FF09C0DAFF000EDB861150D96EDA6AFA
:10211000020ED926DA6ADF500F6E030E0F1608C0C2
:10212000D9FF09C0DAFF0F50DF12084A092A1150FF
:10213000D96EDA6AD92ADA6A08C0E1FF09C0E2FF7B
:10214000DFCFE7FF084A092A1150D96EDA6A08C0C2
:10215000E1FF09C0E2FFDFCFE7FF1200E8CF17F091
:10216000151C166E5350521076E117660FD0B4EC62
:1021700018F0096A220E086E15C00AF057EC16F026
:10218000096A220E086E25EC18F07FD017040FE1C3
:10219000B4EC18F0096A230E086E15C00AF057EC6B
:1021A00016F0096A230E086E25EC18F06ED0040EA6
:1021B000176418D0170E176015D0B4EC18F0220E63
:1021C0001724086E096A000E092215C00AF057ECA0
:1021D00016F0220E1724086E096A000E092225EC5B
:1021E00018F053D01750020A0FE1B4EC18F0096A46
:1021F000240E086E15C00AF057EC16F015C011F049
:10220000000EDCEC0DF041D01750030A0FE1B4ECE6
:1022100018F0096A250E086E15C00AF057EC16F082
:1022200015C011F0010EDCEC0DF02FD01750040A90
:102230002DE1B4EC18F0096A260E086E15C00AF0FC
:1022400057EC16F015C011F0020EDCEC0DF0166E16
:10225000030E16161BD05204531018E1410E1760DE
:1022600015D0B4EC18F0390E1724086E096A000E68
:10227000092215C00AF057EC16F0390E1724086E23
:10228000096A000E092225EC18F0166E165012008D
:1022900074EC16F03AEC16F0000904E198EC13F037
:1022A0007CEC18F013EC16F0096A240E086E25EC8D
:1022B00018F0116E000EDCEC0DF0096A250E086EA8
:1022C00025EC18F0116E010EDCEC0DF0096A260EFB
:1022D000086E25EC18F0116E020EDCEC0DF0040017
:1022E000FA0E00016E650ED071050CE07069B4EC59
:1022F00018F0096A010E086EFF0E0A6857EC16F016
:1023000013EC16F0756B06EC17F01CD0702903E186
:10231000010E716F23D0030E716FDDEC17F01ED02C
:10232000FDEC13F01BD075AF19D078517711D8B4EC
:1023300091EC07F0AEEC0AF011D0B7EC18F00ED02B
:10234000716B0CD000017151E1E0010AE9E0030A70
:10235000E4E0010AE8E0070AF0E0F2D7E90E000144
:10236000605D030E6159000E6259000E63590BE364
:10237000606B616B626B636BEAEC15F07151030A81
:10238000D8B4BCEC18F03B0E6A650BD06A6B692BB5
:102390003B0E696502D0696B682B170E686501D02A
:1023A000686BBBEC18F09BD7E8CF16F0101C156ECD
:1023B0001650830A02E1556A7CD0830E16640ED053
:1023C000890E16600BD010C00CF016507C0FFBEC81
:1023D00017F016507C0F68EC18F069D01650920A6E
:1023E0000DE11050126E116A5250136E146A1110E2
:1023F000526E12501410536E535059D01650930A07
:102400000BE1116A5350126E10501110526E12509F
:10241000536E52C015F04ED0880E166419D0910E2E
:10242000166016D053C011F011C012F0136A1228B2
:1024300002E1522802E0101C3AD010C00CF01650F5
:10244000770F6BEC17F01650770F5EEC18F02FD06B
:10245000CF0E166417D0E00E166014D053C011F0E2
:1024600011C012F0136A1228E6E15228E4E110C00C
:102470000CF01650300F7DEC17F01650300F72EC48
:1024800018F015D01650A20AD6E11050550A04E1F2
:10249000646B656B550E0BD01050AA0A0BE1E80E69
:1024A000645D030E655905E2B0EC18F0AA0E156ED6
:1024B00001D0156A15501200E8CF0FF0106A60D0F5
:1024C0008234E836010B086E8238E832E832010BBC
:1024D000020DF3CF09F08230E832E832010B040D2F
:1024E000F3CF0AF08238010B080DF3CF0BF08238DE
:1024F000E832010B100DF3CF0CF08050010B200DD2
:10250000F3CF0DF08030010B400DF3CF0EF0803093
:10251000E832010B800DF3500E240D241FD08030C3
:10252000E832E832010B086E8038E832010B020D08
:10253000F3CF09F08138010B100DF3CF0AF0823090
:10254000E832010B200DF3CF0BF08130010B400D71
:10255000F3CF0CF08150010B800DF3500C240B24B1
:102560000A2409240AD08138E832E832010B086EC7
:102570008138E832010B020DF3500824106E06D0AA
:102580000F509EE0010ACBE0030AEDE0105012006C
:102590004FAE0DD04F9E240E4F24086E096A000ED8
:1025A000092225EC18F000017D19D8A41200030EB1
:1025B0004F6001D0030C140E4F6401D0140C140EA4
:1025C000A56F040EA66F4F50BFEC15F020D0829E71
:1025D0001200829C12008296120082981200829A47
:1025E0001200809012008092120080941200809657
:1025F0001200809A12008198120082941200819237
:10260000120081901200819C1200819A12004F509A
:10261000030ADDE0070ADDE0010ADDE0030ADDE090
:10262000010ADDE00F0ADDE0010ADDE0030ADDE07A
:10263000010ADDE0070ADDE0010AD8B41200030A4E
:10264000D8B41200010AD7E01F0AD7E0010AD7E088
:10265000030AD7E0010AD7E0070AD8A41200D5D7A9
:102660004FAE0DD04F9E240E4F24086E096A000E07
:10267000092225EC18F000017D19D8A41200030EE0
:102680004F6001D0030C140E4F6401D0140C140ED3
:10269000A56F030EA66F4F50BFEC15F020D0828EB1
:1026A0001200828C12008286120082881200828AB6
:1026B00012008080120080821200808412008086C6
:1026C0001200808A120081881200828412008182A6
:1026D000120081801200818C1200818A12004F50FA
:1026E000030ADDE0070ADDE0010ADDE0030ADDE0C0
:1026F000010ADDE00F0ADDE0010ADDE0030ADDE0AA
:10270000010ADDE0070ADDE0010AD8B41200030A7D
:10271000D8B41200010AD7E01F0AD7E0010AD7E0B7
:10272000030AD7E0010AD7E0070AD8A41200D5D7D8
:10273000B4EC18F0096A220E086E000E0A6A57EC13
:1027400016F0B4EC18F0096A230E086E000E0A6A3F
:1027500057EC16F0030E0F6EB4EC18F0240E0F2495
:10276000086E096A000E09220FC00AF057EC16F035
:102770000F2A140E0F64F0D7B4EC18F0096A240E77
:10278000086E000E0A6A57EC16F0B4EC18F0096AED
:10279000250E086E000E0A6A57EC16F0B4EC18F01D
:1027A000096A260E086E000E0A6A57EC16F00F6AC8
:1027B0000E6AB4EC18F00E500FC00CF00D6AD890F1
:1027C0000C360D36D8900C360D36D8900C360D36AA
:1027D0000C26000E0D22390E0C24086E000E0D2062
:1027E000096E000E0A6A57EC16F00E2A070E0E64E8
:1027F000E0D70F2A0F64DCD7070C51D0572811E01F
:10280000810E836F846B856B866B020E876F57C05A
:1028100089F0D7EC16F0010E0001726F666B676BE2
:1028200045D0040E716F810E836F8969070E846F26
:10283000856B866B030E876FD7EC16F037D075AFBC
:102840000FD07851771132E17951030A2FE15766A1
:1028500003D0020E716FE2D7572A726B736B26D0CA
:10286000E90E665D030E675921E3732B020E736553
:1028700014D0576605D0572A726B666B676BEED71C
:1028800057C070F0030E716F726B705153EC18F0FB
:102890000001736BDDEC17F009D0726B07D00001FB
:1028A0007251ACE0010ACBE0030AF7E10001756B5D
:1028B000120041C091F0926B936B946B93C094F0B3
:1028C00092C093F091C092F0916B3F50956F405041
:1028D000966F976B986B96C098F095C097F0966B33
:1028E000956B43C099F09A6B9B6B9C6B1A0ED890BA
:1028F00099379A379B379C37E82EF9D7955199111C
:102900009D6F96519A119E6F97519B119F6F985191
:102910009C11A06F91519D11A16F92519E11A26FB8
:1029200093519F11A36F9451A011A46F4250A11114
:10293000476EA251486EA351496EA4514A6E47C0DA
:1029400037F048C038F049C039F04AC03AF044C0C6
:102950003BF045C03CF046C03DF0EFEC16F00009FE
:1029600001E1000C010CE8CF12F0116A5350521033
:1029700037E1126606D0096A220E086E25EC18F0BF
:102980003DD0120406E1096A230E086E25EC18F00A
:1029900035D0040E12640CD0170E126009D0220E2E
:1029A0001224086E096A000E092225EC18F026D0C0
:1029B0001250020A04E1000E5CEC12F01FD012501B
:1029C000030A04E1010E5CEC12F018D01250040A64
:1029D00016E1020E5CEC12F0116E030E11160FD010
:1029E000520453100CE1410E126009D0390E12242A
:1029F000086E096A000E092225EC18F0116E1150BC
:102A00001200800E31EC18F0090E0E01436FFC0E1F
:102A1000446F010E456F200E706E728E729C606A5C
:102A20000F01306B0E01806B906BA06BB06BC06BB5
:102A3000D06BE00E7D6FE06B080EE16FE26BE36B35
:102A4000E46B080EE56FE66BE76B030E466F476BB2
:102A5000716B110E726F736F746B756B766B776B36
:102A6000786B540E796F050E7A6F7B6B7B6B0F0E54
:102A7000F86FE00EF96FFA6BFB6BF987FC6BFD6B7F
:102A8000FE6BFF6BFD87000E31EF18F0E8CF0BF007
:102A900028D00F0E0D6E600E22D00F010F0E0D6E9E
:102AA000300E1DD00E010E0E0D6E800E18D00E01D0
:102AB0000E0E0D6E900E13D00E010E0E0D6EA00EAA
:102AC0000ED00E010E0E0D6EB00E09D00E010E0EC0
:102AD0000D6EC00E04D00E010E0E0D6ED00E0C6EDB
:102AE0000FD00B50D6E0010AD8E0030ADBE0010A60
:102AF000DEE0070AE1E0010AE4E0030AE7E0EBD7E1
:102B00000CC008F00DC009F01200E8CF27F021C07A
:102B10001AF022C01BF0280E58EC17F0000901E152
:102B2000000C1F50D96EDA6A28C0DFFF1E50D96E24
:102B3000DA6A29C0DFFF2A50236E010E2B14246E9F
:102B40002750D96EDA6A23C0DEFF24C0DDFF205093
:102B5000D96EDA6A28C023F029C024F02AC025F0F3
:102B60002BC026F01B0E05D0D890263225322432F9
:102B70002332E82EF9D72350070BDF6E010CE8CF84
:102B80004EF0030E4E5E4EC04BF0096A220E086EE8
:102B900025EC18F04C6E270E4E24086E096A000EC4
:102BA000092225EC18F04D6E0001A5C03FF0406AE7
:102BB000A6C041F070C042F0030E436E446E4B0E4F
:102BC000456E000E466E0F0E466E5F0E4564466AF9
:102BD00059EF14F0742B3B0E74650DD0746B6F2B92
:102BE0007151030A08E197EC18F00001A56F9CEC05
:102BF00018F045EC17F03B0E00016F6502D06F6BCB
:102C00006D2B170E6D6501D06D6B7151030AD8A441
:102C100012006C2B6CC04DF00F0E4D16020E4D5C69
:102C2000D8B06C6B1200010E566EABEC18F00001C0
:102C3000706F706701D07069702902E1020E566EE4
:102C4000756B766B776B786B796B836B846B856B4D
:102C5000866B876B556A6B6B576A716B726B736BA4
:102C6000526A536A666B676B646B656B746B6F6BF0
:102C70006D6B1200000E17EC18F0550A06E1010EFC
:102C800017EC18F0AA0A01E1010C020E566EB9EC1D
:102C900018F0FF0E53EC18F0550E0C6E000E8FEC72
:102CA00017F0AA0E0C6E010E8FEC17F0000C0950F5
:102CB000030B756E08C074FF0AC073FF7F9E7F9C74
:102CC0007F84000EF2BE010E0B6EF29E550E7E6EDC
:102CD000AA0E7E6E7F827FB2FED70BB002D0F29E2C
:102CE00001D0F28E7F9412007CEC18F00F015D6B26
:102CF0005C6B926A806A0C0E936E816A010E946E10
:102D0000826A920EECEC17F0FB0E096E1D0E086E37
:102D100085EC18F001EC15F0F28CF28E1200806A4E
:102D2000816A826A516A030E506E140EA56F040EFA
:102D3000A66F5050BFEC15F0504A512A5150800AEE
:102D4000800F150ED8B4505CD8B01200EED7806852
:102D500081688268516A030E506E140EA56F030ECF
:102D6000A66F5050BFEC15F0504A512A5150800ABE
:102D7000800F150ED8B4505CD8B01200EED7755144
:102D80000F0B0D6E0D50D8B41200705120EE7BF079
:102D9000DF6212000D0405E0010E0D64010C7C677A
:102DA000010C7069FF0E53EC18F013EF16F085C09C
:102DB0003FF086C040F087C041F070C042F084C050
:102DC00043F083510F0B446E000E466E890E456E24
:102DD00059EC14F04B6E4B661200552A120037C0A6
:102DE00012F038C013F039C014F03AC015F03CC0EE
:102DF00016F03DC017F03BC018F0200E196EA2EC83
:102E00000EF00009ECE00001836B010C75BF1200AD
:102E1000790E1E6E7A0E1F6E760E206E750E216E66
:102E20007B0E226E770E85EC15F02C6E2C50D8B4EC
:102E300012000001758F120075C04CF00F0E4C1679
:102E40004C04D8A41200705120EE7BF0DF62120017
:102E5000800E836F846B856B866B030E876FD7EF55
:102E600016F0E8CF09F0080E0A6E0B6AD890093404
:102E70000B340B6ED890093608500B5C02E30850F7
:102E80000B5E0A2EF3D70B501200E8CF4CF0830EE6
:102E90000001836F070E846F866B140E856F090E19
:102EA000876F896B4CC08AF0A5C08BF0D7EF16F006
:102EB000E8CF1CF075BF000C1BC00FF01AC010F05B
:102EC0001D0E116E1C5008EC0CF00009F4E01DAC56
:102ED0001DAA000C010CE8CF0DF0070E0D6401D007
:102EE000070CB4EC18F00A0E0D24086E096A000EE7
:102EF00009220CC00AF057EF16F0E8CF0DF00F0EC4
:102F00000D6401D00F0CB4EC18F0120E0D24086EF5
:102F1000096A000E09220CC00AF057EF16F0E8CF3C
:102F20000DF0010E0D6401D0010CB4EC18F0030E8D
:102F30000D24086E096A000E09220CC00AF057EF32
:102F400016F000EE60F0310EEE6AE806FDE100EEEC
:102F500052F0070EEE6AE806FDE1000148EF11F0BD
:102F6000E8CF19F07F0E196405D018C010F0195081
:102F7000D4EF11F018C015F01950AEEF10F07551E4
:102F80000F0B020AD8A41200705120EE7BF0DF6212
:102F900012007CC070F0705153EF18F0E8CF0CF0C5
:102FA0000C04D8A41200B4EC18F0096A086AFF0EE9
:102FB0000A6857EC16F0FF001200810E0001836FC3
:102FC000846B856B866B020E876F70C089F0D7ECBF
:102FD00016F0010E566E010CE8CF08F008507F0B7A
:102FE000D56ED76AD66AF29408AE02D0F28A01D0C2
:102FF000F29AD58E1200E8CF0DF0B4EC18F0050E61
:103000000D24086E096A000E09220CC00AF057EF61
:1030100016F0E8CF09F00950000F086E08C0F6FF5F
:103020000F0EF76E000EF86E0800F5501200E8CF94
:103030000AF0010E0A6401D0000C030E0A24086E87
:10304000096A000E092225EF18F00950030B756E6E
:1030500008C074FF7F9C7F9E7F8000F000F073505B
:103060001200E8CF08F01F0E6F1608506F126F5055
:10307000E00B0818D8B41200FAD7E8CF1DF07F0E85
:103080001D6403D01D5004EF0DF01D50B3EF14F07C
:10309000080E896F8A6B8B6B010E8C6F8D6B010E26
:1030A0008E6F8F6B1200E8CF0CF0B4EC18F0096A49
:1030B000010E086E0CC00AF057EF16F0E8CF0AF0C8
:1030C0000A0E0A24086E096A000E092225EF18F07C
:1030D000E8CF0AF0050E0A24086E096A000E0922DC
:1030E00025EF18F0E8CF0AF0120E0A24086E096ADC
:1030F000000E092225EF18F00001606B616B626B16
:10310000636B6A6B696B686B120008C00AF009C0D8
:103110000BF00BC0D7FF0AC0D6FF120001C003F0AE
:1031200002C004F004C0D7FF03C0D6FF1200096A32
:10313000230E086E25EF18F0096A220E086E25EF9F
:1031400018F0086A096A0A6A0B6A1200086A096AB2
:103150000A6A0B6A1200096A010E086E25EF18F060
:1031600098EC13F07CEF18F07FA21200FDD7566A9E
:10317000120098EF13F012001200010C080C010C61
:08318000020C000C010C12000E
:020000040020DA
:08000000FFFFFFFFFFFFFFFF00
:020000040030CA
:0E00000015126F7EFF8991FF0FC00FE00F40B9
:00000001FF
