:040800005BEF04F0B6
:10081800D8CF05F0E8CF06F0E0CF07F0F2A401D07A
:1008280001D03ED0FB0E026E1D0E016E86EC18F054
:100838000001964B972B944B952B010E9027000E99
:100848009123000E9223000E932382A001D001D0A1
:1008580002D09D6B01D09D2B582A5650020AD8A46D
:1008680001D001D00ED0640E586401D001D009D057
:1008780082A201D001D002D0829201D08282586A2D
:100888000ED05604D8A401D001D003D08282586A71
:1008980006D0566601D001D002D08292586AF294EE
:1008A80007C0E0FF06C0E8FF05C0D8FF1000A0EFB2
:0208B80017F037
:100F00007777772E6575726F736F757263652E7361
:100F1000652F6F64657373613030312E786D6C00AE
:100F20000000A751A611D8A41200E2D22BEF16F0B0
:100F3000F8EF16F07EEF17F0B3EF16F0A4510F0B99
:100F4000020AD8A412009F5120EEAAF0DF6212001C
:100F5000800EAB6111D0AB51AAEC14F00001B86F58
:100F6000ABC0B7F0030EB36F820EB26FB46BB56B4C
:100F70000A0EB66F34EF17F0AB5100EC0DF0EED760
:100F8000A4510F0B030AD8A412009F5120EEAAF01F
:100F9000DF621200800EAB6106D0ACC015F0AB5121
:100FA000A9EC10F0DBD7ACC010F0AB51CFEC11F0D6
:100FB000D5D79F5120EEAAF0DF621200000E6AEC36
:100FC00018F00001AC19D8A41200030E6AEC18F056
:100FD0000001AD19D8A41200050E6AEC18F000014A
:100FE000AE19D8A41200070E6AEC18F00001AF1970
:100FF000D8A412005350B019D8A41200525020EEB9
:10100000B1F0DF621200AB51BEEF17F0000E6AECD8
:1010100018F00001AB1973E1010E6AEC18F0000141
:10102000AC196DE1020E6AEC18F00001AD1967E130
:10103000030E6AEC18F00001AE1961E19B895FD0E4
:10104000040E6AEC18F00001AB1959E1050E6AECC8
:1010500018F00001AC1953E1060E6AEC18F000011B
:10106000AD194DE1070E6AEC18F00001AE1947E129
:101070009B8B45D0080E6AEC18F00001AB193FE1DC
:10108000090E6AEC18F00001AC1939E10A0E6AEC9D
:1010900018F00001AD1933E10B0E6AEC18F00001F5
:1010A000AE192DE19B8D2BD00C0E6AEC18F00001CF
:1010B000AB1925E10D0E6AEC18F00001AC191FE127
:1010C0000E0E6AEC18F00001AD1919E10F0E6AEC72
:1010D00018F00001AE1913E19B8F11D09B6B0FD05C
:1010E000AA390F0B746F756B7551F8E174518EE06E
:1010F000010AA6E0030ABEE0010AD6E0EFD79B5141
:10110000F00BF00AD8B409EC16F012009F5120EE53
:10111000AAF0DF621200806BABC07FF0ACC082F03F
:101120008E6B47D0070E086E8E510DEC17F0000144
:10113000746F7451B80FD96EDA6A7F518E251FEC27
:1011400018F0DF6E070E086E00018E510DEC17F0DF
:10115000060A0BE0FF0E00018225746F756BFF0E0F
:1011600075238E517419751123E1070E086E000165
:101170008E510DEC17F0060A03E1070E000109D0AD
:10118000070E086E00018E510DEC17F00001746F10
:101190007429816F8151810FB26F070EB36FB46BE9
:1011A000B56B1A0EB66F80C0B7F034EC17F0802B19
:1011B0008E2B82518E5DD8B01200B4D79F5120EE95
:1011C000AAF0DF621200ABC083F0A451FE0F070B40
:1011D000846F896B16D08951AC0FD96EDA6ADF50F3
:1011E000186E83518925AFEC17F000018951B80FB3
:1011F000D96EDA6A835189251FEC18F0DF6E000181
:10120000892B8451895DE7E3070EB36FB46BB56B2F
:101210001A0EB66FB76B8451810FB26F34EF17F0AF
:101220009F5120EEAAF0DF621200AB51AAEC14F03D
:101230000001746F7429156EAB51A9EC10F08ED6B5
:101240009F5120EEAAF0DF621200AB51AAEC14F01D
:101250000001746F7405156EAB51A9EC10F07ED6C9
:10126000AA519F1903E0AA29D8A41200886B030E83
:10127000B36F880EB26FB46BB56B200EB66F8D6B0B
:101280008DC0B7F0010E8F6F8F51B70FD96EDA6A2C
:1012900088510F086AEC18F0DF6E0001882B100EE1
:1012A000886501D004D08F2B070E8F65EDD7100E07
:1012B000886501D006D034EC17F08D2B020E8D65B9
:1012C000DFD78F6B8F51F9EC17F0000908E08F51D1
:1012D000BA0FD96EDA6A8F51F9EC17F005D08F5139
:1012E000BA0FD96EDA6A000EDF6E8F2B040E8F658F
:1012F000E9D734EC17F0050E886F030E8D6F8DC0A3
:10130000B7F0010E8F6F8F51B70FD96EDA6A88511F
:10131000F9EC17F0DF6E882B8F2B070E8F65F3D754
:1013200034EC17F08D2B060E8D65E9D7060C9F5116
:1013300020EEAAF0DF621200030EB36F870EB26FC9
:10134000B46BB56B220EB66FB70E2AEC18F034EF03
:1013500017F09F5120EEAAF0DF6212008A6BA4C042
:1013600074F00F0E7417040E745D12E3AEC08BF0B0
:101370008C6B8C518B1103E1010E8C6F8B6B010E0A
:101380008B5D010E8C5907E3010E8C6F000E02D0AD
:101390008C6B010E8B6F52C07BF053C07CF0AC5154
:1013A000ABC074F0756B74C075F0746B7411526ED1
:1013B0007551536E070EB36FB46BB56B270EB66FD6
:1013C000B76BABC0B8F0ACC0B9F08A518B5D746F2D
:1013D000000E8C59756F040E745D000E755902E392
:1013E000040E02D08A518B5D856F8551840FB26FD8
:1013F000AD518A25BA6F866B0CD08651BB0FD96E62
:10140000DA6AAD518A2586251FEC18F0DF6E0001DF
:10141000862B8551865DF1E334EC17F085518A27E0
:10142000B72B8A51746F756B8B51745D8C517559E4
:10143000CCE37BC052F07CC053F012009F5120EEF1
:10144000AAF0DF62120052C07DF053C07EF0AC51B2
:10145000ABC074F0756B74C075F0746B7411526E20
:101460007551536EADC087F012D0AD51BB088725C2
:10147000D96EDA6AAD51AE088725E16EE26AE750AF
:10148000186E8751AFEC17F0DF6E0001872BA45167
:101490000F0B746F756BAD517427000E7523FC0E26
:1014A0007425766FFF0E7521776F8751786F796B92
:1014B0007951800A7A6F7651785D7751800A7A592E
:1014C000D4E37DC052F07EC053F0070EB36FA45139
:1014D0000F0B800FB26FB46BB56B270EB66FB76B87
:1014E000ABC0B8F0ACC0B9F0ADC0BAF034EF17F093
:1014F000A851010A01E11AD5030A01E119D5040A2C
:1015000001E118D50E0A01E117D5010A01E116D54E
:10151000020A01E135D5070A01E14BD51B0A01E1B9
:10152000DFD50F0A01E1F2D5010A01E147D6040A2D
:1015300001E176D6030A01E183D6010A01E190D6E2
:101540003E0A01E1F4D6040A01E103D7030AD8A454
:10155000120074D70001A751A611D8B41200846BF1
:101560008451766F776BD89076377737D890763707
:101570007737D89076377737390E7625086E000E94
:101580007721096E07EC18F00001836F83AF36D125
:1015900083AD18D08451766F776BD89076377737D4
:1015A000D89076377737D89076377737380E7625D4
:1015B000086E000E7721096E07EC18F00001A919DA
:1015C00001E01CD183A90BD0AB2909E0096A210EE7
:1015D000086E07EC18F00001AB1901E00FD183A7EA
:1015E0000BD0AC2909E0096A210E086E07EC18F04F
:1015F0000001AC1901E002D18451080D3B0EF32427
:10160000086E000EF420096E07EC18F00001766FEA
:101610008351010B786F776B76517725796F000EC8
:1016200078217A6F8451080D3A0EF324086E000E6B
:10163000F420096E07EC18F00001766F8351020B5D
:10164000786F776B765177257B6F000E78217C6FF2
:101650008451766F776BD89076377737D890763716
:101660007737D890763777373D0E7625086E000E9F
:101670007721096E07EC18F000017D6F8451766FB9
:10168000776BD89076377737D89076377737D8908A
:10169000763777373C0E7625086E000E7721096E77
:1016A00007EC18F000017E6F20EEA6F0DECF76F09A
:1016B000DDCF77F07951761B7A51771B7B51761706
:1016C0007C5177177751761101E098D0A8517D1998
:1016D0007E1575E093D000018451766F776BD890BA
:1016E00076377737D89076377737D8907637773719
:1016F0003F0E7625086E000E7721096E07EC18F074
:1017000000017F6F7FC04FF0835126EC13F076D03D
:1017100000018451766F776BD89076377737D89001
:1017200076377737D890763777373F0E7625086E3D
:10173000000E7721096E07EC18F00001806F80C061
:101740004FF08351BEEC12F059D000018451766FF6
:10175000776BD89076377737D89076377737D890B9
:10176000763777373F0E7625086E000E7721096EA3
:1017700007EC18F00001816F81C04FF083519BECA2
:1017800016F03CD000018451766F776BD890763795
:101790007737D89076377737D890763777373F0EC8
:1017A0007625086E000E7721096E07EC18F000010F
:1017B000826F82C04FF0835183EC16F01FD08451AA
:1017C000766F776BD89076377737D89076377737CC
:1017D000D890763777373E0E7625086E000E772143
:1017E000096E07EC18F0000A09E0010A01E173D75D
:1017F000030A8EE0010AA9E0070AC4E00001842B75
:10180000070E8465ADD6070CE8CF14F0546A725009
:10181000C00B166E166630D060AE12D0779071AEE7
:1018200006D01150D96EDA6A000EDB86719E60A078
:1018300002D0548001D054900F0E196E600E1AD051
:101840000F0130AF000C779271AC06D01150D96EF9
:10185000DA6A000EDB86719C3051070B546E020E63
:10186000546005D01150D96EDA6A000EDB8E0F0E6F
:10187000196E300E186E5BD01650400A3EE160AE15
:1018800004D00F0E196E600E36D00F0130AF04D0A9
:101890000F0E196E300E2FD00E017DA580AF04D033
:1018A0000E0E196E800E27D00E017DA790AF04D0CA
:1018B0000E0E196E900E1FD00E017DA9A0AF04D0A0
:1018C0000E0E196EA00E17D00E017DABB0AF04D076
:1018D0000E0E196EB00E0FD00E017DADC0AF04D04C
:1018E0000E0E196EC00E07D00E017DAFD0AF000CEA
:1018F0000E0E196ED00E186E0AD071AE000C6F501D
:10190000070B3DEC15F008C018F009C019F018C01D
:10191000D9FF19C0DAFFDF501F0B546E779271ACFC
:1019200006D01150D96EDA6A000EDB86719C18C0A1
:1019300012F019C013F01150D96EDA6ADF6A20EE86
:1019400005F01850D9261950DA22DF50176E1050C2
:10195000D96EDA6A17500F0BDF6E17AC05D0115035
:10196000D96EDA6A000EDB8C20EE02F01850D92610
:101970001950DA22DF50176E17A608D01150D96E11
:10198000DA6A000EDB8A010E176E01D0176A18287A
:10199000086E000E1920096E14C00AF017C00BF073
:1019A0004FEC0FF0060E1826000E19221050D96EBB
:1019B000DA6ADF50176E156A0DD018C0D9FF19C04A
:1019C000DAFF0F50E16EE26ADFCFE7FF184A192A0B
:1019D0000F2A152A1750155CF0E377AE06D0115088
:1019E000D96EDA6A000EDB88779E12C0D9FF13C069
:1019F000DAFF7F0EDF161650800AD8B4719E010CF4
:101A0000E8CF1CF01B6A1C50800A04E155C01BF093
:101A1000556ACBD01C50810A02E1010E81D01C50C6
:101A2000820A02E1050E7CD01C50830A02E11B6A87
:101A3000BCD01C50940A03E1BDEC18F071D01C50CE
:101A4000950A03E1BCEC18F06BD01C50960A03E138
:101A5000BBEC18F065D0890E1C6005D01C507C0FC3
:101A600060EC18F05DD0880E1C6408D0910E1C60EC
:101A700005D01C50770F56EC18F052D01C50910A2C
:101A800003E19FC01BF091D01C50930A03E152C0A8
:101A90001BF08BD01C50920A02E1535041D01C50D5
:101AA000970A03E1BAEC18F03BD01C50980A03E106
:101AB000B9EC18F035D01C50990A03E1B8EC18F0D5
:101AC0002FD0990E1C642ED09E0E1C602BD09EEC45
:101AD00018F00BC014F00AC013F009C012F008C0CF
:101AE00011F01C50660F196E195003080C6ED89037
:101AF0000C36D8900C36D8900C360C5011C00DF026
:101B000012C00EF013C00FF014C010F0E82A05D078
:101B1000D89010320F320E320D32E82EF9D730D075
:101B20001B6E43D09D0E1C642DD0A20E1C602AD0CB
:101B300099EC18F00BC018F00AC017F009C016F0A5
:101B400008C015F01C50620F1A6E1A5003080C6E74
:101B5000D8900C36D8900C36D8900C360C5015C056
:101B60000DF016C00EF017C00FF018C010F0E82AE4
:101B700005D0D89010320F320E320D32E82EF9D740
:101B80000D50CED7CF0E1C6408D0E00E1C6005D0DF
:101B90001C50300F6AEC18F0C3D7DF0E1C6405D060
:101BA0001C50200FF9EC17F0BBD71B501200E8CFE8
:101BB00013F0146AB9D0010E11A0000E126E123289
:101BC0001232825012187F0B1218826E010E11A26F
:101BD000000E126E123A1246124682501218BF0BB5
:101BE0001218826E010E11A4000E126E12461246D9
:101BF000124682501218F70B1218826E010E11A6AF
:101C0000000E126E123A82501218EF0B1218826EEA
:101C1000010E11A8000E126E123A124682501218CE
:101C2000DF0B1218826E010E11AA000E126E805088
:101C30001218FE0B1218806E010E11AC000E126EFF
:101C4000124680501218FD0B1218806E010E11AE54
:101C5000000E126E1246124680501218FB0B12181C
:101C6000806E000E52EC12F05DD0010E11A0000E3D
:101C7000126E12461246124680501218F70B1218B6
:101C8000806E010E11A2000E126E123A12468050A2
:101C90001218DF0B1218806E010E11A8000E126EC2
:101CA000123A81501218EF0B1218816E010E11AA10
:101CB000000E126E1246124682501218FB0B1218BA
:101CC000826E010E11AC000E126E12468150121877
:101CD000FD0B1218816E010E11AE000E126E8150B6
:101CE0001218FE0B1218816E010E52EC12F01AD06F
:101CF000010E11A0000E126E123A124612468150C9
:101D00001218BF0B1218816E010E11A2000E126E76
:101D1000123A124681501218DF0B1218816E020E11
:101D200052EC12F0146E07D0135001E144D7010AAF
:101D30009CE0030ADDE0145012000F0E1C6E200E12
:101D40001B6E0F0E1E6E100E1D6E0F0E206E1F6A84
:101D50000E010E0E226E800E216E0E0E246E900E5F
:101D6000236E0E0E266EA00E256E0E0E286EB00E81
:101D7000276E0E0E2A6EC00E296E0E0E2C6ED00E21
:101D80002B6E7250C00B2D6E2D6602D0020E01D04C
:101D9000080E2E6ED8907D31306E346A7CD034506F
:101DA000020DF3501B0FD96EDA6ADECF35F0DDCFAE
:101DB00036F035C031F036C032F0020E346404D053
:101DC000D890303230A066D035C0D9FF36C0DAFFA7
:101DD000DF501A6E1AB65ED035C0D9FF36C0DAFFB2
:101DE000FC0EDF1619C01AF0030E1A1635C0D9FF03
:101DF00036C0DAFF1A50DF1219AC04D0185040096F
:101E0000336E02D018C033F020EE05F03550D926DD
:101E10003650DA2233C0DFFF19AA03D0010E336E29
:101E200001D0336A3528086E000E3620096E12C0C4
:101E30000AF013C00BF014C00CF015C00DF033C045
:101E40000EF001EC10F0060E3526000E36222F6A39
:101E50000FD016C0D9FF17C0DAFF35C0E1FF36C07A
:101E6000E2FFDFCFE7FF164A172A354A362A2F2A24
:101E700018502F5CEEE331C0D9FF32C0DAFFDF50DB
:101E80001A6E1AB4010C31C0D9FF32C0DAFF000E4D
:101E9000DB86010C342A2E50345C81E3000C0AC02E
:101EA0000EF00B6646D00E50D96EDA6A08C0E1FF1C
:101EB00009C0E2FFE7500C6ED8900C36D8900C3673
:101EC000D8900C34DF6E0E50D96EDA6AD92ADA6AED
:101ED00008C0E1FF09C0E2FFE7500C6E050E0D6E71
:101EE000D8900C320D2EFCD70C50DF6E084A092A10
:101EF00008C0D9FF09C0DAFFDF500C6E050E0D6E69
:101F0000D8900C320D2EFCD70E50D96EDA6A0C50D8
:101F1000DF120E50D96EDA6A020ED926DA6ADF6A4B
:101F20000E50D96EDA6A030ED926DA6A000EDF6E19
:101F3000000C0E50D96EDA6A020ED926DA6A08C091
:101F4000E1FF09C0E2FFE7500C6E050E0D6ED89060
:101F50000C360D2EFCD70C50DF6E0E50D96EDA6A9F
:101F6000030ED926DA6A08C0E1FF09C0E2FFE75094
:101F70000C6ED8900C32D8900C32D8900C30DF6EAA
:101F8000084A092A08C0D9FF09C0DAFFDF500C6EE1
:101F9000030E0C160E50D96EDA6A020ED926DA6AD2
:101FA0000C50DF1208C0D9FF09C0DAFFDF500C6EF9
:101FB000D8900C32D8900C32D8900C321C0E0C16E3
:101FC0000E50D96EDA6A020ED926DA6A0C50DF1288
:101FD000084A092A08C0D9FF09C0DAFF0E50E16E8D
:101FE000E26AE12AE26ADFCFE7FF084A092A08C06D
:101FF000D9FF09C0DAFF0E50E16EE26ADFCFE7FFDA
:1020000012000A0E116E0E6637D01150D96EDA6AC0
:10201000DF500F6ED8900F32D8900F32D8900F301B
:1020200008C0D9FF09C0DAFFDF6E1150D96EDA6A35
:10203000D92ADA6ADF500F6E050E106ED8900F366F
:10204000102EFCD708C0D9FF09C0DAFF0F50DF12ED
:10205000084A092A1150D96EDA6ADF500F6E050E50
:10206000106ED8900F36102EFCD70F5008C0D9FF35
:1020700009C0DAFFDF6E12001150D96EDA6A020E63
:10208000D926DA6ADF500F6E050E106ED8900F3227
:10209000102EFCD70F5008C0D9FF09C0DAFFDF6E41
:1020A0001150D96EDA6A030ED926DA6ADF500F6E44
:1020B000D8900F36D8900F36D8900F3608C0D9FF79
:1020C00009C0DAFF0F50DF12084A092A1150D96EF1
:1020D000DA6A020ED926DA6ADF500F6ED8900F3610
:1020E000D8900F36D8900F34E00B08C0D9FF09C044
:1020F000DAFFDF6E08C0D9FF09C0DAFF000EDB8609
:102100001150D96EDA6A020ED926DA6ADF500F6EE4
:10211000030E0F1608C0D9FF09C0DAFF0F50DF12F7
:10212000084A092A1150D96EDA6AD92ADA6A08C02F
:10213000E1FF09C0E2FFDFCFE7FF084A092A11509B
:10214000D96EDA6A08C0E1FF09C0E2FFDFCFE7FF1E
:102150001200E8CF17F0151C166E5350521076E19E
:1021600017660FD0B1EC18F0096A210E086E15C081
:102170000AF04BEC16F0096A210E086E07EC18F015
:102180007FD017040FE1B1EC18F0096A220E086E37
:1021900015C00AF04BEC16F0096A220E086E07EC27
:1021A00018F06ED0040E176418D0170E176015D0F3
:1021B000B1EC18F0210E1724086E096A000E0922EE
:1021C00015C00AF04BEC16F0210E1724086E096AB0
:1021D000000E092207EC18F053D01750020A0FE145
:1021E000B1EC18F0096A230E086E15C00AF04BEC2A
:1021F00016F015C011F0000ED7EC0DF041D01750BD
:10220000030A0FE1B1EC18F0096A240E086E15C03C
:102210000AF04BEC16F015C011F0010ED7EC0DF0E2
:102220002FD01750040A2DE1B1EC18F0096A250EE1
:10223000086E15C00AF04BEC16F015C011F0020E36
:10224000D7EC0DF0166E030E16161BD05204531069
:1022500018E1410E176015D0B1EC18F0380E1724B4
:10226000086E096A000E092215C00AF04BEC16F040
:10227000380E1724086E096A000E092207EC18F0C0
:10228000166E1650120068EC16F090EC17F000096C
:1022900004E18EEC13F074EC18F009EC16F0096A06
:1022A000230E086E07EC18F0116E000ED7EC0DF03F
:1022B000096A240E086E07EC18F0116E010ED7ECB7
:1022C0000DF0096A250E086E07EC18F0116E020E6B
:1022D000D7EC0DF00400FA0E00019D650ED0A005AC
:1022E0000CE09F69B1EC18F0096A010E086EFF0E50
:1022F0000A684BEC16F009EC16F0A46BE2EC16F051
:102300001CD09F2903E1010EA06F23D0030EA06F04
:10231000CDEC17F01ED0F3EC13F01BD0A4AF19D006
:10232000A751A611D8B491EC07F0AAEC0AF011D08D
:10233000B4EC18F00ED0A06B0CD00001A051E1E07D
:10234000010AE9E0030AE4E0010AE8E0070AF0E034
:10235000F2D7E90E0001905D030E9159000E9259DB
:10236000000E93590BE3906B916B926B936BE1ECC6
:1023700015F0A051030AD8B4B7EC18F03B0E9A65DB
:102380000BD09A6B992B3B0E996502D0996B982BC9
:10239000170E986501D0986BB6EC18F09BD7E8CF74
:1023A00016F0101C156E830E16640ED0890E166082
:1023B0000BD010C00CF016507C0FEBEC17F0165041
:1023C0007C0F60EC18F069D01650920A0DE11050A5
:1023D000126E116A5250136E146A1110526E12501E
:1023E0001410536E535059D01650930A0BE1116AD2
:1023F0005350126E10501110526E1250536E52C044
:1024000015F04ED0880E166419D0910E166016D0B5
:1024100053C011F011C012F0136A122802E15228C1
:1024200002E0101C3AD010C00CF01650770F5AEC96
:1024300017F01650770F56EC18F02FD0CF0E166409
:1024400017D0E00E166014D053C011F011C012F076
:10245000136A1228E6E15228E4E110C00CF016508D
:10246000300F6CEC17F01650300F6AEC18F015D0E6
:102470001650A20AD6E11050550A04E1946B956BF0
:10248000550E0BD01050AA0A0BE1E80E945D030E16
:10249000955905E2ADEC18F0AA0E156E01D0156A3B
:1024A00015501200E8CF0FF0106A60D08234E83681
:1024B000010B086E8238E832E832010B020DF3CFCF
:1024C00009F08230E832E832010B040DF3CF0AF054
:1024D0008238010B080DF3CF0BF08238E832010B84
:1024E000100DF3CF0CF08050010B200DF3CF0DF049
:1024F0008030010B400DF3CF0EF08030E832010B3D
:10250000800DF3500E240D241FD08030E832E832C5
:10251000010B086E8038E832010B020DF3CF09F091
:102520008138010B100DF3CF0AF08230E832010B35
:10253000200DF3CF0BF08130010B400DF3CF0CF0E9
:102540008150010B800DF3500C240B240A24092424
:102550000AD08138E832E832010B086E8138E8325F
:10256000010B020DF3500824106E06D00F509EE0B0
:10257000010ACBE0030AEDE0105012004FAE0DD07F
:102580004F9E230E4F24086E096A000E092207ECA5
:1025900018F00001AC19D8A41200030E4F6001D04E
:1025A000030C140E4F6401D0140C140E746F040E3F
:1025B000756F4F50B6EC15F020D0829E1200829CB1
:1025C00012008296120082981200829A1200809065
:1025D0001200809212008094120080961200809A5D
:1025E0001200819812008294120081921200819050
:1025F0001200819C1200819A12004F50030ADDE004
:10260000070ADDE0010ADDE0030ADDE0010ADDE0A2
:102610000F0ADDE0010ADDE0030ADDE0010ADDE08A
:10262000070ADDE0010AD8B41200030AD8B4120088
:10263000010AD7E01F0AD7E0010AD7E0030AD7E072
:10264000010AD7E0070AD8A41200D5D74FAE0DD0A3
:102650004F9E230E4F24086E096A000E092207ECD4
:1026600018F00001AC19D8A41200030E4F6001D07D
:10267000030C140E4F6401D0140C140E746F030E6F
:10268000756F4F50B6EC15F020D0828E1200828C00
:1026900012008286120082881200828A12008080D4
:1026A0001200808212008084120080861200808ACC
:1026B00012008188120082841200818212008180BF
:1026C0001200818C1200818A12004F50030ADDE053
:1026D000070ADDE0010ADDE0030ADDE0010ADDE0D2
:1026E0000F0ADDE0010ADDE0030ADDE0010ADDE0BA
:1026F000070ADDE0010AD8B41200030AD8B41200B8
:10270000010AD7E01F0AD7E0010AD7E0030AD7E0A1
:10271000010AD7E0070AD8A41200D5D7B1EC18F007
:10272000096A210E086E000E0A6A4BEC16F0B1EC35
:1027300018F0096A220E086E000E0A6A4BEC16F0B9
:10274000030E0F6EB1EC18F0230E0F24086E096A09
:10275000000E09220FC00AF04BEC16F00F2A140EDF
:102760000F64F0D7B1EC18F0096A230E086E000E62
:102770000A6A4BEC16F0B1EC18F0096A240E086EE8
:10278000000E0A6A4BEC16F0B1EC18F0096A250E3F
:10279000086E000E0A6A4BEC16F00F6A0E6AB1EC76
:1027A00018F00E500FC00CF00D6AD8900C360D3694
:1027B000D8900C360D36D8900C360D360C26000EFF
:1027C0000D22380E0C24086E000E0D20096E000E2E
:1027D0000A6A4BEC16F00E2A070E0E64E0D70F2A99
:1027E0000F64DCD7070C53D0572810E0810EB26F6E
:1027F000B36BB46BB56B020EB66F57C0B7F034EC69
:1028000017F0010EA16F966B976B48D0040EA06F66
:10281000810EB26FB769070EB36FB46BB56B030E61
:10282000B66F34EC17F03AD0A4AF0FD0A751A61171
:1028300035E1A851030A32E1576603D0020EA06FBA
:10284000E2D7572AA16BA26B29D0E90E965D030E41
:10285000975924E3A22B020EA26517D0576605D024
:10286000572AA16B966B976BEED757C09FF0030E5C
:10287000A06FA16B9F514BEC18F0400E40EC18F08C
:102880000001A26BCDEC17F009D0A16B07D00001BD
:10289000A151AAE0010AC8E0030AF7E1A46B120003
:1028A00041C060F0616B626B636B62C063F061C0DA
:1028B00062F060C061F0606B3F50646F4050656FC4
:1028C000666B676B65C067F064C066F0656B646BD0
:1028D00043C068F0696B6A6B6B6B1A0ED8906837EF
:1028E00069376A376B37E82EF9D7645168116C6F16
:1028F000655169116D6F66516A116E6F67516B1189
:102900006F6F60516C11706F61516D11716F625119
:102910006E11726F63516F11736F42507011476E79
:102920007151486E7251496E73514A6E47C037F00B
:1029300048C038F049C039F04AC03AF044C03BF0D2
:1029400045C03CF046C03DF0CBEC16F0000901E17B
:10295000000C010CE8CF12F0116A5350521037E10D
:10296000126606D0096A210E086E07EC18F03DD0F9
:10297000120406E1096A220E086E07EC18F035D041
:10298000040E12640CD0170E126009D0210E12240E
:10299000086E096A000E092207EC18F026D01250C2
:1029A000020A04E1000E52EC12F01FD01250030A8A
:1029B00004E1010E52EC12F018D01250040A16E194
:1029C000020E52EC12F0116E030E11160FD05204CB
:1029D00053100CE1410E126009D0380E1224086E1B
:1029E000096A000E092207EC18F0116E115012004E
:1029F000800E13EC18F0090E0E01436FFC0E446FAD
:102A0000010E456F200E706E728E729C606A0F010F
:102A1000306B0E01806B906BA06BB06BC06BD06B9A
:102A2000E00E7D6FE06B080EE16FE26BE36BE46B31
:102A3000080EE56FE66BE76B030E466F476B716B35
:102A4000110E726F736F746B756B766B776B786B3F
:102A5000540E796F050E7A6F7B6B7B6B0F0EF86FE0
:102A6000E00EF96FFA6BFB6BF987FC6BFD6BFE6B8D
:102A7000FF6BFD87000E13EF18F0E8CF0BF028D0A6
:102A80000F0E0D6E600E22D00F010F0E0D6E300E68
:102A90001DD00E010E0E0D6E800E18D00E010E0E02
:102AA0000D6E900E13D00E010E0E0D6EA00E0ED0F8
:102AB0000E010E0E0D6EB00E09D00E010E0E0D6E33
:102AC000C00E04D00E010E0E0D6ED00E0C6E0FD087
:102AD0000B50D6E0010AD8E0030ADBE0010ADEE091
:102AE000070AE1E0010AE4E0030AE7E0EBD70CC0E3
:102AF00008F00DC009F01200E8CF27F021C01AF04D
:102B000022C01BF0280E47EC17F0000901E1000C71
:102B10001F50D96EDA6A28C0DFFF1E50D96EDA6AFC
:102B200029C0DFFF2A50236E010E2B14246E27507C
:102B3000D96EDA6A23C0DEFF24C0DDFF2050D96ED3
:102B4000DA6A28C023F029C024F02AC025F02BC05F
:102B500026F01B0E05D0D89026322532243223329F
:102B6000E82EF9D72350070BDF6E010CE8CF4EF0AB
:102B7000030E4E5E4EC04BF0096A210E086E07EC44
:102B800018F04C6E260E4E24086E096A000E0922BB
:102B900007EC18F04D6E000174C03FF0406A75C03C
:102BA00041F09FC042F0030E436E446E4B0E456EE3
:102BB000000E466E0F0E466E5F0E4564466A50EF7D
:102BC00014F0A32B3B0EA3650DD0A36B9E2BA0513D
:102BD000030A08E18FEC18F00001746F94EC18F010
:102BE00021EC17F03B0E9E6502D09E6B9C2B170EBE
:102BF0009C6501D09C6BA051030AD8A412009B2BAA
:102C00009BC04DF00F0E4D16020E4D5CD8B09B6B65
:102C10001200020E566EA3EC18F000019F6F9F6722
:102C200001D09F69A46BA56BA66BA76BA86BB26B59
:102C3000B36BB46BB56BB66B556A576AA06BA16B7F
:102C4000A26B526A536A966B976B946B956BA36BEE
:102C50009E6B9C6B1200A8EC18F0000918E10001B3
:102C6000A4510F0B050AD8A41200A8EC18F000011B
:102C7000AA19D8B41200AA5140EC18F000019F69BB
:102C8000FF0E4BEC18F0010E0001A06F010C0001CB
:102C9000AA5140EF18F00950030B756E08C074FF7D
:102CA0000AC073FF7F9E7F9C7F84000EF2BE010EE0
:102CB0000B6EF29E550E7E6EAA0E7E6E7F827FB2E6
:102CC000FED70BB002D0F29E01D0F28E7F9412009C
:102CD00074EC18F00F015D6B5C6B926A806A0C0EED
:102CE000936E816A010E946E826A920EDCEC17F08C
:102CF000FB0E096E1D0E086E7DEC18F0F8EC14F05A
:102D0000F28CF28E1200806A816A826A516A030E26
:102D1000506E140E746F040E756F5050B6EC15F0B3
:102D2000504A512A5150800A800F150ED8B4505C79
:102D3000D8B01200EED7806881688268516A030EAD
:102D4000506E140E746F030E756F5050B6EC15F084
:102D5000504A512A5150800A800F150ED8B4505C49
:102D6000D8B01200EED7A4510F0B0D6E0D50D8B491
:102D700012009F5120EEAAF0DF6212000D0405E060
:102D8000010E0D64010CAB67010C9F69FF0E4BEC4B
:102D900018F009EF16F037C012F038C013F039C040
:102DA00014F03AC015F03CC016F03DC017F03BC01F
:102DB00018F0200E196E9DEC0EF00009ECE00001F9
:102DC000B26B010CA4BF1200A80E1E6EA90E1F6EDE
:102DD000A50E206EA40E216EAA0E226EA60E7CEC0D
:102DE00015F02C6E2C50D8B412000001A48F1200E4
:102DF000A4C04CF00F0E4C164C04D8A412009F51E6
:102E000020EEAAF0DF621200800EB26FB36BB46BDB
:102E1000B56B030EB66F34EF17F0E8CF09F0080E6C
:102E20000A6E0B6AD89009340B340B6ED8900936B1
:102E300008500B5C02E308500B5E0A2EF3D70B50D0
:102E40001200E8CF4CF0830E0001B26F070EB36F93
:102E5000B56B140EB46F090EB66FB76B4CC0B8F0FB
:102E600074C0B9F034EF17F0B4C03FF0B5C040F013
:102E7000B6C041F09FC042F0B3C043F0B2510F0B57
:102E8000446E000E466EB70E456E50EF14F0E8CF5C
:102E90001CF0A4BF000C1BC00FF01AC010F01D0ED8
:102EA000116E1C5004EC0CF00009F4E01DAC1DAADE
:102EB000000C010CE8CF0DF0070E0D6401D0070CDB
:102EC000B1EC18F0090E0D24086E096A000E0922F3
:102ED0000CC00AF04BEF16F0E8CF0DF00F0E0D64AA
:102EE00001D00F0CB1EC18F0110E0D24086E096A18
:102EF000000E09220CC00AF04BEF16F0A4510F0B84
:102F0000020AD8A412009F5120EEAAF0DF6212003C
:102F1000ABC09FF09F514BEC18F0400E40EF18F003
:102F2000A8EC18F0C00B400A01E1010CFF0E4BECBD
:102F300018F0000E40EC18F0A00E35EC18F0000C64
:102F400000EE90F02F0EEE6AE806FDE100EE52F082
:102F5000070EEE6AE806FDE1000143EF11F0E8CF4D
:102F600019F07F0E196405D018C010F01950CFEF7A
:102F700011F018C015F01950A9EF10F0E8CF0CF0BF
:102F80000C04D8A41200B1EC18F0096A086AFF0E0C
:102F90000A684BEC16F0FF001200810E0001B26FC0
:102FA000B36BB46BB56B020EB66F9FC0B7F034EC69
:102FB00017F0010E566E010CE8CF08F008507F0B99
:102FC000D56ED76AD66AF29408AE02D0F28A01D0E2
:102FD000F29AD58E1200E8CF0DF0B1EC18F0040E85
:102FE0000D24086E096A000E09220CC00AF04BEF8E
:102FF00016F0E8CF09F00950000F086E08C0F6FF80
:103000000F0EF76E000EF86E0800F5501200095012
:10301000030B756E08C074FF7F9C7F9E7F8000F05D
:1030200000F073501200E8CF08F01F0E6F16085022
:103030006F126F50E00B0818D8B41200FAD7E8CF1F
:103040001DF07F0E1D6403D01D5000EF0DF01D50CC
:10305000AAEF14F0080EB76FB86BB96B010EBA6F18
:10306000BB6B010EBC6FBD6B1200E8CF0CF0B1EC76
:1030700018F0096A030E086E0CC00AF04BEF16F048
:10308000E8CF0CF0B1EC18F0096A020E086E0CC023
:103090000AF04BEF16F0E8CF0CF0B1EC18F0096A2B
:1030A000010E086E0CC00AF04BEF16F0E8CF0AF0E4
:1030B000090E0A24086E096A000E092207EF18F0AB
:1030C000E8CF0AF0040E0A24086E096A000E0922ED
:1030D00007EF18F0E8CF0AF0110E0A24086E096A0B
:1030E000000E092207EF18F00001906B916B926BB4
:1030F000936B9A6B996B986B120008C00AF009C029
:103100000BF00BC0D7FF0AC0D6FF120001C003F0BE
:1031100002C004F004C0D7FF03C0D6FF1200096A42
:10312000220E086E07EF18F0096A210E086E07EFED
:1031300018F0086A096A0A6A0B6A1200086A096AC2
:103140000A6A0B6A1200096A010E086E07EF18F08E
:10315000096A020E086E07EF18F08EEC13F074EF98
:1031600018F07FA21200FDD7566A1200120012005A
:0C317000010C080C010C000C000C010C00
:020000040020DA
:08000000FFFFFFFFFFFFFFFF00
:020000040030CA
:0E00000015126F7EFF8991FF0FC00FE00F40B9
:00000001FF
