:040800005DEF04F0B4
:10081800D8CF05F0E8CF06F0E0CF07F0F2A401D07A
:1008280001D040D0FB0E026E1D0E016EDEEC18F0FA
:10083800544A552A0001644B652B010E6027000EAF
:100848006123000E6223000E632382A001D001D031
:1008580003D0666B676B02D0664B672B582A5650DD
:10086800020AD8A401D001D00ED0640E586401D079
:1008780001D009D082A201D001D002D0829201D049
:100888008282586A0ED05604D8A401D001D003D071
:100898008282586A06D0566601D001D002D0829270
:1008A800586AF29407C0E0FF06C0E8FF05C0D8FF09
:0608B80010000BEF18F028
:100F00007777772E6575726F736F757263652E7361
:100F1000652F6F64657373613030312E786D6C00AE
:100F2000000079517811D8A41200F5D2120086EF92
:100F300017F0DCEF16F041EF17F076510F0B020AB5
:100F4000D8A41200715120EE7CF0DF621200800EF6
:100F50007D6111D07D51C8EC14F000018B6F7DC014
:100F60008AF0030E856F820E846F866B876B0A0E84
:100F7000886FF7EF16F07D5117EC0DF0EED7765134
:100F80000F0B030AD8A41200715120EE7CF0DF622F
:100F90001200800E7D6106D07EC015F07D51C1EC3F
:100FA00010F0DBD77EC010F07D51E9EC11F0D5D701
:100FB000715120EE7CF0DF621200000EC2EC18F0DE
:100FC00000017E19D8A41200030EC2EC18F0000133
:100FD0007F19D8A41200050EC2EC18F00001801988
:100FE000D8A41200070EC2EC18F000018119D8A491
:100FF000120053508219D8A41200525020EE83F0F0
:10100000DF6212007D5129EF18F0000EC2EC18F0DB
:1010100000017D1973E1010EC2EC18F000017E1988
:101020006DE1020EC2EC18F000017F1967E1030EBA
:10103000C2EC18F00001801961E16E895FD0040EE6
:10104000C2EC18F000017D1959E1050EC2EC18F050
:1010500000017E1953E1060EC2EC18F000017F1961
:101060004DE1070EC2EC18F00001801947E16E8BCC
:1010700045D0080EC2EC18F000017D193FE1090EC1
:10108000C2EC18F000017E1939E10A0EC2EC18F02A
:1010900000017F1933E10B0EC2EC18F0000180193A
:1010A0002DE16E8D2BD00C0EC2EC18F000017D19D5
:1010B00025E10D0EC2EC18F000017E191FE10E0EA5
:1010C000C2EC18F000017F1919E10F0EC2EC18F004
:1010D0000001801913E16E8F11D06E6B0FD07C3937
:1010E0000F0BA66FA76BA751F8E1A6518EE0010A7E
:1010F000A6E0030ABEE0010AD6E0EFD76E51F00B7E
:10110000F00AD8B433EC16F01200715120EE7CF0E6
:10111000DF621200B46B7DC0B3F07EC0B6F0C26B6C
:1011200048D0070E086EC2519BEC17F00001A66F65
:10113000A6518B0FD96EDA6AB351C22598EC18F01C
:10114000DF6E070E086E0001C2519BEC17F0060A15
:101150000BE0FF0E0001B625A66FA76BFF0EA723BD
:10116000C251A619A71124E1070E086E0001C25151
:101170009BEC17F0060A03E1070E000109D0070EE9
:10118000086E0001C2519BEC17F00001A66FA62962
:10119000B56FB551810F846F070E856F866B876BB6
:1011A0001A0E886FB4C08AF0F7EC16F00001B42B69
:1011B000C22BB651C25DD8B01200B3D7715120EE28
:1011C0007CF0DF6212007DC0B7F07651FE0F070B96
:1011D000B86FBD6B16D0BD517E0FD96EDA6ADF5085
:1011E000186EB751BD251AEC18F00001BD518B0FD8
:1011F000D96EDA6AB751BD2598EC18F0DF6E0001A0
:10120000BD2BB851BD5DE7E3070E856F866B876B1D
:101210001A0E886F8A6BB851810F846FF7EF16F042
:10122000715120EE7CF0DF6212007D51C8EC14F0A9
:101230000001A66FA629156E7D51C1EC10F08DD668
:10124000715120EE7CF0DF6212007D51C8EC14F089
:101250000001A66FA605156E7D51C1EC10F07DD67C
:101260007C51711903E07C29D8A41200BC6B030ED9
:10127000856F880E846F866B876B200E886FC16BBD
:10128000C1C08AF0010EC36FC3518A0FD96EDA6AEA
:10129000BC510F08C2EC18F0DF6E0001BC2B100E21
:1012A000BC6501D004D0C32B070EC365EDD7100E6B
:1012B000BC6501D007D0F7EC16F00001C12B020E7F
:1012C000C165DED7C36BC35164EC18F0000908E0B8
:1012D000C3518D0FD96EDA6AC35164EC18F005D092
:1012E000C3518D0FD96EDA6A000EDF6EC32B040E68
:1012F000C365E9D7F7EC16F0050E0001BC6F030ECD
:10130000C16FC1C08AF0010EC36FC3518A0FD96E7D
:10131000DA6ABC5164EC18F0DF6EBC2BC32B070EED
:10132000C365F3D7F7EC16F00001C12B060EC165BB
:10133000E8D7060C715120EE7CF0DF621200030E3C
:10134000856F870E846F866B876B220E886F8A0E7F
:10135000D4EC15F0F7EF16F0715120EE7CF0DF625F
:101360001200BE6B76C0A6F00F0EA617040EA65D87
:1013700012E380C0BFF0C06BC051BF1103E1010E8A
:10138000C06FBF6B010EBF5D010EC05907E3010EB8
:10139000C06F000E02D0C06B010EBF6F52C0ADF027
:1013A00053C0AEF07E517DC0A6F0A76BA6C0A7F0DB
:1013B000A66BA611526EA751536E070E856F866BF2
:1013C000876B270E886F8A6B7DC08BF07EC08CF098
:1013D000BE51BF5DA66F000EC059A76F040EA65D7B
:1013E000000EA75902E3040E02D0BE51BF5DB96FD3
:1013F000B951840F846F7F51BE258D6FBA6B0CD0AD
:10140000BA518E0FD96EDA6A7F51BE25BA2598EC93
:1014100018F0DF6E0001BA2BB951BA5DF1E354C088
:10142000AFF055C0B0F0F7EC16F0020E0001AF259A
:10143000A66F000EB021A76FA651545CA751555856
:10144000F4E3B951BE278A2BBE51A66FA76BBF51DB
:10145000A65DC051A759BCE3ADC052F0AEC053F079
:101460001200715120EE7CF0DF62120052C0B1F028
:1014700053C0B2F07E517DC0A6F0A76BA6C0A7F006
:10148000A66BA611526EA751536E7FC0BBF012D04F
:101490007F518E08BB25D96EDA6A7F518008BB2543
:1014A000E16EE26AE750186EBB511AEC18F0DF6E7D
:1014B0000001BB2B76510F0BA66FA76B7F51A627A0
:1014C000000EA723FC0EA625A86FFF0EA721A96F6B
:1014D000BB51AA6FAB6BAB51800AAC6FA851AA5D30
:1014E000A951800AAC59D4E3B1C052F0B2C053F054
:1014F000070E856F76510F0B800F846F866B876B9D
:10150000270E886F8A6B7DC08BF07EC08CF07FC009
:101510008DF0F7EF16F07A51010A01E107D5030AC1
:1015200001E105D5040A01E104D50E0A01E103D564
:10153000010A01E102D5020A01E121D5070A01E110
:1015400037D51B0A01E1CBD50F0A01E1DED5010A2F
:1015500001E134D6040A01E163D6030A01E170D641
:10156000010A01E17DD63E0A01E1E4D6040A01E167
:10157000F3D6030AD8A4120074D700017951781168
:10158000D8B41200B66BB651A86FA96BD890A83723
:10159000A937D890A837A937D890A837A9373A0ED5
:1015A000A825086E000EA921096E80EC18F0000134
:1015B000B56FB5AF36D1B5AD18D0B651A86FA96B20
:1015C000D890A837A937D890A837A937D890A83786
:1015D000A937390EA825086E000EA921096E80ECE6
:1015E00018F000017B1901E01CD1B5A90BD07D29B1
:1015F00009E0096A220E086E80EC18F000017D19DE
:1016000001E00FD1B5A70BD07E2909E0096A220EAF
:10161000086E80EC18F000017E1901E002D1B6518D
:10162000080D3C0EF324086E000EF420096E80ECC9
:1016300018F00001A86FB551010BAA6FA96BA85152
:10164000A925AB6F000EAA21AC6FB651080D3B0E59
:10165000F324086E000EF420096E80EC18F00001EF
:10166000A86FB551020BAA6FA96BA851A925AD6F40
:10167000000EAA21AE6FB651A86FA96BD890A837FB
:10168000A937D890A837A937D890A837A9373E0EE0
:10169000A825086E000EA921096E80EC18F0000143
:1016A000AF6FB651A86FA96BD890A837A937D8905B
:1016B000A837A937D890A837A9373D0EA825086EB6
:1016C000000EA921096E80EC18F00001B06F20EE29
:1016D00078F0DECFA8F0DDCFA9F0AB51A81BAC515C
:1016E000A91BAD51A817AE51A917A951A81101E026
:1016F00098D07A51AF19B01575E093D00001B6516A
:10170000A86FA96BD890A837A937D890A837A93760
:10171000D890A837A937400EA825086E000EA92139
:10172000096E80EC18F00001B16FB1C04FF0B551F7
:1017300045EC13F076D00001B651A86FA96BD89094
:10174000A837A937D890A837A937D890A837A9378C
:10175000400EA825086E000EA921096E80EC18F035
:101760000001B26FB2C04FF0B551DDEC12F059D0AC
:101770000001B651A86FA96BD890A837A937D890A7
:10178000A837A937D890A837A937400EA825086EE2
:10179000000EA921096E80EC18F00001B36FB3C0F0
:1017A0004FF0B55129EC17F03CD00001B651A86FAD
:1017B000A96BD890A837A937D890A837A937D8905F
:1017C000A837A937400EA825086E000EA921096E7A
:1017D00080EC18F00001B46FB4C04FF0B55111ECBB
:1017E00017F01FD0B651A86FA96BD890A837A937AA
:1017F000D890A837A937D890A837A9373F0EA82581
:10180000086E000EA921096E80EC18F0000A09E0AC
:10181000010A01E173D7030A8EE0010AA9E0070A71
:10182000C4E00001B62B070EB665ADD6070CE8CFB5
:1018300014F0686B7250C00B166E166633D060AE33
:1018400013D0779071AE06D01150D96EDA6A000EBF
:10185000DB86719E60A002D0688102D00001689191
:101860000F0E196E600E1CD00F0130AF000C779276
:1018700071AC06D01150D96EDA6A000EDB86719C0D
:101880003051070B0001686F020E686105D01150DE
:10189000D96EDA6A000EDB8E0F010F0E196E300E54
:1018A000186E5CD01650400A3EE160AE04D00F0EB8
:1018B000196E600E36D00F0130AF04D00F0E196EC6
:1018C000300E2FD00E017DA580AF04D00E0E196E04
:1018D000800E27D00E017DA790AF04D00E0E196E9A
:1018E000900E1FD00E017DA9A0AF04D00E0E196E70
:1018F000A00E17D00E017DABB0AF04D00E0E196E46
:10190000B00E0FD00E017DADC0AF04D00E0E196E1B
:10191000C00E07D00E017DAFD0AF000C0E0E196EB9
:10192000D00E186E0AD071AE000C6F50070B5BEC36
:1019300015F008C018F009C019F018C0D9FF19C077
:10194000DAFFDF501F0B0001686F779271AC06D091
:101950001150D96EDA6A000EDB86719C18C012F045
:1019600019C013F01150D96EDA6ADF6A20EE05F063
:101970001850D9261950DA22DF50176E1050D96E40
:10198000DA6A17500F0BDF6E17AC05D01150D96E05
:10199000DA6A000EDB8C20EE02F01850D9261950BE
:1019A000DA22DF50176E17A608D01150D96EDA6A06
:1019B000000EDB8A010E176E01D0176A1828086E18
:1019C000000E1920096E14C00AF017C00BF067EC66
:1019D0000FF0060E1826000E19221050D96EDA6A82
:1019E000DF50176E156A0DD018C0D9FF19C0DAFF85
:1019F0000F50E16EE26ADFCFE7FF184A192A0F2A7B
:101A0000152A1750155CF0E377AE06D01150D96E49
:101A1000DA6A000EDB88779E12C0D9FF13C0DAFFA6
:101A20007F0EDF161650800AD8B4719E010CE8CFE5
:101A30001CF01B6A1C50800A04E16CC01BF06C6B2C
:101A4000CCD01C50810A02E1010E82D01C50820AC7
:101A500002E1060E7DD01C50830A03E16DC01BF02D
:101A6000BCD01C50940A03E112EC19F071D01C5048
:101A7000950A03E111EC19F06BD01C50960A03E1B2
:101A800010EC19F065D0890E1C6005D01C507C0F3D
:101A9000B8EC18F05DD0880E1C6408D0910E1C6064
:101AA00005D01C50770FAEEC18F052D01C50910AA4
:101AB00003E171C01BF091D01C50930A03E152C0A6
:101AC0001BF08BD01C50920A02E1535041D01C50A5
:101AD000970A03E10FEC19F03BD01C50980A03E180
:101AE0000EEC19F035D01C50990A03E10DEC19F0F9
:101AF0002FD0990E1C642ED09E0E1C602BD0F6ECBD
:101B000018F00BC014F00AC013F009C012F008C09E
:101B100011F01C50660F196E195003080C6ED89006
:101B20000C36D8900C36D8900C360C5011C00DF0F5
:101B300012C00EF013C00FF014C010F0E82A05D048
:101B4000D89010320F320E320D32E82EF9D730D045
:101B50001B6E43D09D0E1C642DD0A20E1C602AD09B
:101B6000F1EC18F00BC018F00AC017F009C016F01D
:101B700008C015F01C50620F1A6E1A5003080C6E44
:101B8000D8900C36D8900C36D8900C360C5015C026
:101B90000DF016C00EF017C00FF018C010F0E82AB4
:101BA00005D0D89010320F320E320D32E82EF9D710
:101BB0000D50CED7CF0E1C6408D0E00E1C6005D0AF
:101BC0001C50300FC2EC18F0C3D7DF0E1C6405D0D8
:101BD0001C50200F64EC18F0BBD71B501200E8CF4C
:101BE00013F0146AB9D0010E11A0000E126E123259
:101BF0001232825012187F0B1218826E010E11A23F
:101C0000000E126E123A1246124682501218BF0B84
:101C10001218826E010E11A4000E126E12461246A8
:101C2000124682501218F70B1218826E010E11A67E
:101C3000000E126E123A82501218EF0B1218826EBA
:101C4000010E11A8000E126E123A1246825012189E
:101C5000DF0B1218826E010E11AA000E126E805058
:101C60001218FE0B1218806E010E11AC000E126ECF
:101C7000124680501218FD0B1218806E010E11AE24
:101C8000000E126E1246124680501218FB0B1218EC
:101C9000806E000E71EC12F05DD0010E11A0000EEE
:101CA000126E12461246124680501218F70B121886
:101CB000806E010E11A2000E126E123A1246805072
:101CC0001218DF0B1218806E010E11A8000E126E92
:101CD000123A81501218EF0B1218816E010E11AAE0
:101CE000000E126E1246124682501218FB0B12188A
:101CF000826E010E11AC000E126E12468150121847
:101D0000FD0B1218816E010E11AE000E126E815085
:101D10001218FE0B1218816E010E71EC12F01AD01F
:101D2000010E11A0000E126E123A12461246815098
:101D30001218BF0B1218816E010E11A2000E126E46
:101D4000123A124681501218DF0B1218816E020EE1
:101D500071EC12F0146E07D0135001E144D7010A60
:101D60009CE0030ADDE0145012000F0E1C6E200EE2
:101D70001B6E0F0E1E6E100E1D6E0F0E206E1F6A54
:101D80000E010E0E226E800E216E0E0E246E900E2F
:101D9000236E0E0E266EA00E256E0E0E286EB00E51
:101DA000276E0E0E2A6EC00E296E0E0E2C6ED00EF1
:101DB0002B6E7250C00B2D6E2D6602D0020E01D01C
:101DC000080E2E6ED8907D31306E346A7CD034503F
:101DD000020DF3501B0FD96EDA6ADECF35F0DDCF7E
:101DE00036F035C031F036C032F0020E346404D023
:101DF000D890303230A066D035C0D9FF36C0DAFF77
:101E0000DF501A6E1AB65ED035C0D9FF36C0DAFF81
:101E1000FC0EDF1619C01AF0030E1A1635C0D9FFD2
:101E200036C0DAFF1A50DF1219AC04D0185040093E
:101E3000336E02D018C033F020EE05F03550D926AD
:101E40003650DA2233C0DFFF19AA03D0010E336EF9
:101E500001D0336A3528086E000E3620096E12C094
:101E60000AF013C00BF014C00CF015C00DF033C015
:101E70000EF019EC10F0060E3526000E36222F6AF1
:101E80000FD016C0D9FF17C0DAFF35C0E1FF36C04A
:101E9000E2FFDFCFE7FF164A172A354A362A2F2AF4
:101EA00018502F5CEEE331C0D9FF32C0DAFFDF50AB
:101EB0001A6E1AB4010C31C0D9FF32C0DAFF000E1D
:101EC000DB86010C342A2E50345C81E3000C0AC0FE
:101ED0000EF00B6646D00E50D96EDA6A08C0E1FFEC
:101EE00009C0E2FFE7500C6ED8900C36D8900C3643
:101EF000D8900C34DF6E0E50D96EDA6AD92ADA6ABD
:101F000008C0E1FF09C0E2FFE7500C6E050E0D6E40
:101F1000D8900C320D2EFCD70C50DF6E084A092ADF
:101F200008C0D9FF09C0DAFFDF500C6E050E0D6E38
:101F3000D8900C320D2EFCD70E50D96EDA6A0C50A8
:101F4000DF120E50D96EDA6A020ED926DA6ADF6A1B
:101F50000E50D96EDA6A030ED926DA6A000EDF6EE9
:101F6000000C0E50D96EDA6A020ED926DA6A08C061
:101F7000E1FF09C0E2FFE7500C6E050E0D6ED89030
:101F80000C360D2EFCD70C50DF6E0E50D96EDA6A6F
:101F9000030ED926DA6A08C0E1FF09C0E2FFE75064
:101FA0000C6ED8900C32D8900C32D8900C30DF6E7A
:101FB000084A092A08C0D9FF09C0DAFFDF500C6EB1
:101FC000030E0C160E50D96EDA6A020ED926DA6AA2
:101FD0000C50DF1208C0D9FF09C0DAFFDF500C6EC9
:101FE000D8900C32D8900C32D8900C321C0E0C16B3
:101FF0000E50D96EDA6A020ED926DA6A0C50DF1258
:10200000084A092A08C0D9FF09C0DAFF0E50E16E5C
:10201000E26AE12AE26ADFCFE7FF084A092A08C03C
:10202000D9FF09C0DAFF0E50E16EE26ADFCFE7FFA9
:1020300012000A0E116E0E6637D01150D96EDA6A90
:10204000DF500F6ED8900F32D8900F32D8900F30EB
:1020500008C0D9FF09C0DAFFDF6E1150D96EDA6A05
:10206000D92ADA6ADF500F6E050E106ED8900F363F
:10207000102EFCD708C0D9FF09C0DAFF0F50DF12BD
:10208000084A092A1150D96EDA6ADF500F6E050E20
:10209000106ED8900F36102EFCD70F5008C0D9FF05
:1020A00009C0DAFFDF6E12001150D96EDA6A020E33
:1020B000D926DA6ADF500F6E050E106ED8900F32F7
:1020C000102EFCD70F5008C0D9FF09C0DAFFDF6E11
:1020D0001150D96EDA6A030ED926DA6ADF500F6E14
:1020E000D8900F36D8900F36D8900F3608C0D9FF49
:1020F00009C0DAFF0F50DF12084A092A1150D96EC1
:10210000DA6A020ED926DA6ADF500F6ED8900F36DF
:10211000D8900F36D8900F34E00B08C0D9FF09C013
:10212000DAFFDF6E08C0D9FF09C0DAFF000EDB86D8
:102130001150D96EDA6A020ED926DA6ADF500F6EB4
:10214000030E0F1608C0D9FF09C0DAFF0F50DF12C7
:10215000084A092A1150D96EDA6AD92ADA6A08C0FF
:10216000E1FF09C0E2FFDFCFE7FF084A092A11506B
:10217000D96EDA6A08C0E1FF09C0E2FFDFCFE7FFEE
:102180001200E8CF17F0151C166E5350521076E16E
:1021900017660FD004EC19F0096A220E086E15C0FC
:1021A0000AF0A3EC16F0096A220E086E80EC18F013
:1021B0007FD017040FE104EC19F0096A230E086EB2
:1021C00015C00AF0A3EC16F0096A230E086E80EC25
:1021D00018F06ED0040E176418D0170E176015D0C3
:1021E00004EC19F0220E1724086E096A000E092269
:1021F00015C00AF0A3EC16F0220E1724086E096A27
:10220000000E092280EC18F053D01750020A0FE19B
:1022100004EC19F0096A240E086E15C00AF0A3EC4C
:1022200016F015C011F0000EEFEC0DF041D0175074
:10223000030A0FE104EC19F0096A250E086E15C0B7
:102240000AF0A3EC16F015C011F0010EEFEC0DF042
:102250002FD01750040A2DE104EC19F0096A260E5C
:10226000086E15C00AF0A3EC16F015C011F0020EAE
:10227000EFEC0DF0166E030E16161BD05204531021
:1022800018E1410E176015D004EC19F0390E17242F
:10229000086E096A000E092215C00AF0A3EC16F0B8
:1022A000390E1724086E096A000E092280EC18F016
:1022B000166E16501200C0EC16F086EC16F00009EF
:1022C00004E1ADEC13F0CCEC18F033EC16F0096A35
:1022D000240E086E80EC18F0116E000EEFEC0DF07D
:1022E000096A250E086E80EC18F0116E010EEFECF5
:1022F0000DF0096A260E086E80EC18F0116E020EC1
:10230000EFEC0DF00400C50E0001665D090E675983
:102310000EE372050CE0716904EC19F0096A010E14
:10232000086EFF0E0A68A3EC16F033EC16F0766B1D
:1023300070EC17F01CD0712903E1010E726F23D0ED
:10234000030E726F38EC18F01ED012EC14F01BD094
:1023500076AF19D079517811D8B491EC07F0BDEC73
:102360000AF011D007EC19F00ED0726B0CD00001FE
:102370007251E1E0010AE9E0030AE4E0010AE8E061
:10238000070AF0E0F2D7E90E0001605D030E615923
:10239000000E6259000E63590BE3606B616B626B58
:1023A000636B5DEC16F07251030AD8B40CEC19F0B3
:1023B0003B0E6B650BD06B6B6A2B3B0E6A6502D0D4
:1023C0006A6B692B170E696501D0696B0BEC19F00C
:1023D00099D7E8CF16F0101C156E1650830A02E14B
:1023E0006D6B7CD0830E16640ED0890E16600BD0F8
:1023F00010C00CF016507C0F56EC18F016507C0FE5
:10240000B8EC18F069D01650920A0DE11050126E17
:10241000116A5250136E146A1110526E1250141039
:10242000536E535059D01650930A0BE1116A535012
:10243000126E10501110526E1250536E52C015F0A1
:102440004ED0880E166419D0910E166016D053C067
:1024500011F011C012F0136A122802E1522802E0B2
:10246000101C3AD010C00CF01650770FD5EC17F0B6
:102470001650770FAEEC18F02FD0CF0E166417D091
:10248000E00E166014D053C011F011C012F0136AA0
:102490001228E6E15228E4E110C00CF01650300F8B
:1024A000E7EC17F01650300FC2EC18F015D01650AC
:1024B000A20AD6E11050550A04E1646B656B550E13
:1024C0000BD01050AA0A0BE1E80E645D030E6559AB
:1024D00005E200EC19F0AA0E156E01D0156A155030
:1024E0001200E8CF0FF0106A60D08234E836010B9A
:1024F000086E8238E832E832010B020DF3CF09F0A2
:102500008230E832E832010B040DF3CF0AF0823852
:10251000010B080DF3CF0BF08238E832010B100DE0
:10252000F3CF0CF08050010B200DF3CF0DF0803075
:10253000010B400DF3CF0EF08030E832010B800D1F
:10254000F3500E240D241FD08030E832E832010B06
:10255000086E8038E832010B020DF3CF09F08138A4
:10256000010B100DF3CF0AF08230E832010B200D81
:10257000F3CF0BF08130010B400DF3CF0CF0815005
:10258000010B800DF3500C240B240A2409240AD0DB
:102590008138E832E832010B086E8138E832010BED
:1025A000020DF3500824106E06D00F509EE0010A71
:1025B000CBE0030AEDE0105012004FAE0DD04F9E5D
:1025C000240E4F24086E096A000E092280EC18F0D0
:1025D00000017E19D8A41200030E4F6001D0030C35
:1025E000140E4F6401D0140C140EA66F040EA76FC6
:1025F0004F5008EC16F020D0829E1200829C1200F0
:102600008296120082981200829A12008090120024
:10261000809212008094120080961200809A12001C
:10262000819812008294120081921200819012000F
:10263000819C1200819A12004F50030ADDE0070AC4
:10264000DDE0010ADDE0030ADDE0010ADDE00F0A5A
:10265000DDE0010ADDE0030ADDE0010ADDE0070A52
:10266000DDE0010AD8B41200030AD8B41200010A4E
:10267000D7E01F0AD7E0010AD7E0030AD7E0010A32
:10268000D7E0070AD8A41200D5D74FAE0DD04F9E81
:10269000240E4F24086E096A000E092280EC18F0FF
:1026A00000017E19D8A41200030E4F6001D0030C64
:1026B000140E4F6401D0140C140EA66F030EA76FF6
:1026C0004F5008EC16F020D0828E1200828C12003F
:1026D0008286120082881200828A12008080120094
:1026E000808212008084120080861200808A12008C
:1026F000818812008284120081821200818012007F
:10270000818C1200818A12004F50030ADDE0070A13
:10271000DDE0010ADDE0030ADDE0010ADDE00F0A89
:10272000DDE0010ADDE0030ADDE0010ADDE0070A81
:10273000DDE0010AD8B41200030AD8B41200010A7D
:10274000D7E01F0AD7E0010AD7E0030AD7E0010A61
:10275000D7E0070AD8A41200D5D704EC19F0096A0B
:10276000220E086E000E0A6AA3EC16F004EC19F0B3
:10277000096A230E086E000E0A6AA3EC16F0030E17
:102780000F6E04EC19F0240E0F24086E096A000E77
:1027900009220FC00AF0A3EC16F00F2A140E0F64E2
:1027A000F0D704EC19F0096A240E086E000E0A6ACC
:1027B000A3EC16F004EC19F0096A250E086E000E61
:1027C0000A6AA3EC16F004EC19F0096A260E086EEA
:1027D000000E0A6AA3EC16F00F6A0E6A04EC19F0F8
:1027E0000E500FC00CF00D6AD8900C360D36D890F4
:1027F0000C360D36D8900C360D360C26000E0D22F8
:10280000390E0C24086E000E0D20096E000E0A6AA7
:10281000A3EC16F00E2A070E0E64E0D70F2A0F6401
:10282000DCD7070C51D0572811E0810E846F856BDF
:10283000866B876B020E886F57C08AF0F7EC16F034
:10284000010E0001736F546A556A45D0040E726F11
:10285000810E846F8A69070E856F866B876B030E06
:10286000886FF7EC16F037D076AF0FD0795178112A
:1028700032E17A51030A2FE1576603D0020E726FDC
:10288000E2D7572A736B746B26D0E90E545C030EA3
:10289000555821E3742B020E746514D0576605D089
:1028A000572A736B546A556AEED757C071F0030EFE
:1028B000726F736B7151A3EC18F00001746B38ECFC
:1028C00018F009D0736B07D000017351ACE0010A16
:1028D000CBE0030AF7E10001766B120041C092F0F1
:1028E000936B946B956B94C095F093C094F092C0E9
:1028F00093F0926B3F50966F4050976F986B996B27
:1029000097C099F096C098F0976B966B43C09AF079
:102910009B6B9C6B9D6B1A0ED8909A379B379C379C
:102920009D37E82EF9D796519A119E6F97519B11BA
:102930009F6F98519C11A06F99519D11A16F925159
:102940009E11A26F93519F11A36F9451A011A46F78
:102950009551A111A56F4250A211476EA351486E27
:10296000A451496EA5514A6E47C037F048C038F0AF
:1029700049C039F04AC03AF044C03BF045C03CF091
:1029800046C03DF059EC17F0000901E1000C010CC4
:10299000E8CF12F0116A5350521037E1126606D098
:1029A000096A220E086E80EC18F03DD0120406E190
:1029B000096A230E086E80EC18F035D0040E1264FC
:1029C0000CD0170E126009D0220E1224086E096A6C
:1029D000000E092280EC18F026D01250020A04E101
:1029E000000E71EC12F01FD01250030A04E1010E28
:1029F00071EC12F018D01250040A16E1020E71ECBC
:102A000012F0116E030E11160FD0520453100CE188
:102A1000410E126009D0390E1224086E096A000EA8
:102A2000092280EC18F0116E11501200800E8CEC0F
:102A300018F0090E0E01436FFC0E446F010E456F36
:102A4000200E706E728E729C606A0F01306B0E01E8
:102A5000806B906BA06BB06BC06BD06BE00E7D6F2A
:102A6000E06B080EE16FE26BE36BE46B080EE56F61
:102A7000E66BE76B030E466F476B716B110E726F5F
:102A8000736F746B756B766B776B786B540E796FB5
:102A9000050E7A6F7B6B7B6B0F0EF86FE00EF96F94
:102AA000FA6BFB6BF987FC6BFD6BFE6BFF6BFD87B5
:102AB000000E8CEF18F0E8CF0BF028D00F0E0D6E43
:102AC000600E22D00F010F0E0D6E300E1DD00E01C4
:102AD0000E0E0D6E800E18D00E010E0E0D6E900EA5
:102AE00013D00E010E0E0D6EA00E0ED00E010E0EA6
:102AF0000D6EB00E09D00E010E0E0D6EC00E04D07C
:102B00000E010E0E0D6ED00E0C6E0FD00B50D6E0D7
:102B1000010AD8E0030ADBE0010ADEE0070AE1E08F
:102B2000010AE4E0030AE7E0EBD70CC008F00DC0AF
:102B300009F01200E8CF27F021C01AF022C01BF0E4
:102B4000280EC2EC17F0000901E1000C1F50D96EED
:102B5000DA6A28C0DFFF1E50D96EDA6A29C0DFFFAB
:102B60002A50236E010E2B14246E2750D96EDA6A78
:102B700023C0DEFF24C0DDFF2050D96EDA6A28C0F2
:102B800023F029C024F02AC025F02BC026F01B0E0C
:102B900005D0D8902632253224322332E82EF9D7B8
:102BA0002350070BDF6E010CE8CF08F00850D96EF8
:102BB000DA6A080EDF6E0850D96EDA6AD92ADA6A44
:102BC000DF6A0850D96EDA6A020ED926DA6ADF6A3D
:102BD0000850D96EDA6A030ED926DA6A010EDF6E62
:102BE0000850D96EDA6A040ED926DA6ADF6A08500C
:102BF000D96EDA6A050ED926DA6A010EDF6E085040
:102C0000D96EDA6A060ED926DA6A000EDF6E000C7B
:102C1000E8CF4EF0030E4E5E4EC04BF0096A220E16
:102C2000086E80EC18F04C6E270E4E24086E096A70
:102C3000000E092280EC18F04D6E0001A6C03FF096
:102C4000406AA7C041F071C042F0030E436E446E6B
:102C50004B0E456E000E466E0F0E466E5F0E4564BF
:102C6000466A6EEF14F00001666B676B010E566EDC
:102C7000FBEC18F00001716F716701D07169712967
:102C800002E1020E566E766B776B786B796B7A6B1E
:102C9000846B856B866B876B886B6D6B6C6B576A0F
:102CA000726B736B746B526A536A546A556A646BC5
:102CB000656B756B706B6F6B1200752B3B0E7565DA
:102CC0000DD0756B702B7251030A08E1E7EC18F018
:102CD0000001A66FECEC18F0AFEC17F03B0E000112
:102CE000706502D0706B6F2B170E6F6501D06F6B24
:102CF0007251030AD8A412006E2B6EC04DF00F0E55
:102D00004D16020E4D5CD8B06E6B1200000E72ECC8
:102D100018F0550A06E1010E72EC18F0AA0A01E15A
:102D2000010C020E566E09EC19F0FF0EA3EC18F020
:102D3000550E0C6E000EF9EC17F0AA0E0C6E010E7B
:102D4000F9EC17F0000C0950030B756E08C074FF06
:102D50000AC073FF7F9E7F9C7F84000EF2BE010E2F
:102D60000B6EF29E550E7E6EAA0E7E6E7F827FB235
:102D7000FED70BB002D0F29E01D0F28E7F941200EB
:102D8000CCEC18F00F015D6B5C6B100E926E806ADC
:102D90000C0E936E816A010E946E826A920E47EC5D
:102DA00018F0FB0E096E1D0E086ED5EC18F016EC2F
:102DB00015F0F28CF28E120076510F0B020AD8A495
:102DC0001200715120EE7CF0DF6212007DC071F0C4
:102DD0007151A3EC18F0810E0001846F856B866B36
:102DE000876B070E886F71C08AF0F7EF16F086C008
:102DF0003FF087C040F088C041F071C042F085C00C
:102E000043F084510F0B446E000E466E8A0E456EE1
:102E10006EEC14F04B6E4B6602D000016D2B4B50E4
:102E20001200806A816A826A516A030E506E140E23
:102E3000A66F040EA76F505008EC16F0504A512AA6
:102E40005150800A800F150ED8B4505CD8B01200D3
:102E5000EED7806881688268516A030E506E140E46
:102E6000A66F030EA76F505008EC16F0504A512A77
:102E70005150800A800F150ED8B4505CD8B01200A3
:102E8000EED776510F0B0D6E0D50D8B41200715164
:102E900020EE7CF0DF6212000D0405E0010E0D64EF
:102EA000010C7D67010C7169FF0EA3EC18F033EF84
:102EB00016F037C012F038C013F039C014F03AC021
:102EC00015F03CC016F03DC017F03BC018F0200EC6
:102ED000196EB5EC0EF00009ECE00001846B010CFA
:102EE00076BF12007A0E1E6E7B0E1F6E770E206E5E
:102EF000760E216E7C0E226E780E9AEC15F02C6EFA
:102F00002C50D8B412000001768F120076C04CF01D
:102F10000F0E4C164C04D8A41200715120EE7CF018
:102F2000DF621200800E846F856B866B876B030EE9
:102F3000886FF7EF16F0E8CF09F0080E0A6E0B6AFB
:102F4000D89009340B340B6ED890093608500B5CBE
:102F500002E308500B5E0A2EF3D70B501200E8CFA5
:102F60004CF0830E0001846F070E856F876B140E83
:102F7000866F090E886F8A6B4CC08BF0A6C08CF0F0
:102F8000F7EF16F0E8CF1CF076BF000C1BC00FF077
:102F90001AC010F01D0E116E1C5017EC0CF0000939
:102FA000F4E01DAC1DAA000C010CE8CF0DF0070EDB
:102FB0000D6401D0070C04EC19F00A0E0D24086E04
:102FC000096A000E09220CC00AF0A3EF16F0E8CF40
:102FD0000DF00F0E0D6401D00F0C04EC19F0120E61
:102FE0000D24086E096A000E09220CC00AF0A3EF36
:102FF00016F0E8CF0DF0010E0D6401D0010C04ECC9
:1030000019F0030E0D24086E096A000E09220CC087
:103010000AF0A3EF16F000EE60F0320EEE6AE8065A
:10302000FDE100EE52F0070EEE6AE806FDE1000158
:103030005BEF11F0E8CF19F07F0E196405D018C0CE
:1030400010F01950E9EF11F018C015F01950C1EF48
:1030500010F0E8CF0CF00C04D8A4120004EC19F026
:10306000096A086AFF0E0A68A3EC16F0FF00120056
:10307000810E0001846F856B866B876B020E886FF3
:1030800071C08AF0F7EC16F0010E566E010CE8CF15
:1030900008F008507F0BD56ED76AD66AF29408AE56
:1030A00002D0F28A01D0F29AD58E1200E8CF0DF04C
:1030B00004EC19F0050E0D24086E096A000E0922B1
:1030C0000CC00AF0A3EF16F0E8CF09F00950000F8A
:1030D000086E08C0F6FF0F0EF76E000EF86E0800BF
:1030E000F5501200E8CF0AF0010E0A6401D0000C7E
:1030F000030E0A24086E096A000E092280EF18F0F8
:103100000950030B756E08C074FF7F9C7F9E7F8003
:1031100000F000F073501200E8CF08F01F0E6F1699
:1031200008506F126F50E00B0818D8B41200FAD78D
:10313000E8CF1DF07F0E1D6403D01D5017EF0DF07A
:103140001D50C8EF14F0E8CF0CF004EC19F0096A38
:10315000010E086E0CC00AF0A3EF16F0E8CF0AF0DB
:103160000A0E0A24086E096A000E092280EF18F080
:10317000E8CF0AF0050E0A24086E096A000E09223B
:1031800080EF18F0E8CF0AF0120E0A24086E096AE0
:10319000000E092280EF18F00001606B616B626B1A
:1031A000636B6B6B6A6B696B120008C00AF009C035
:1031B0000BF00BC0D7FF0AC0D6FF120001C003F00E
:1031C00002C004F004C0D7FF03C0D6FF1200096A92
:1031D000230E086E80EF18F0096A220E086E80EF49
:1031E00018F0086A096A0A6A0B6A1200086A096A12
:1031F0000A6A0B6A1200096A010E086E80EF18F065
:10320000ADEC13F0CCEF18F07FA21200FDD7566A98
:103210001200ADEF13F012001200010C080C010CAB
:08322000020C000C010C12006D
:020000040020DA
:08000000FFFFFFFFFFFFFFFF00
:020000040030CA
:0E0000001512677EFF8991FF0FC00FE00F40C1
:00000001FF
