:040000005BEF00F0C2
:10001800D8CF05F0E8CF06F0E0CF07F0F2A401D082
:1000280001D03ED0FB0E026E1D0E016ED6EC17F00D
:100038000001664B672B644B652B010E6027000E91
:100048006123000E6223000E632382A001D001D039
:1000580002D06E6B01D06E2B582A5650020AD8A4D3
:1000680001D001D00ED0640E586401D001D009D05F
:1000780082A201D001D002D0829201D08282586A35
:100088000ED05604D8A401D001D003D08282586A79
:1000980006D0566601D001D002D08292586AF294F6
:1000A80007C0E0FF06C0E8FF05C0D8FF1000FBEF5F
:0200B80016F040
:100F00007777772E6575726F736F757263652E7361
:100F1000652F6F64657373613030312E786D6C00AE
:100F2000000078517711D8A41200AED26DEF15F001
:100F300043EF16F0C9EF16F015EF16F075510F0BD1
:100F4000020AD8A41200705120EE7BF0DF6212007A
:100F5000800E7C6111D07C51ECEC13F00001896FA4
:100F60007CC088F0030E846F820E836F856B866B66
:100F70000A0E876F7FEF16F07C518EEC0CF0EED7E7
:100F800075510F0B030AD8A41200705120EE7BF0AC
:100F9000DF621200800E7C6106D07DC015F07C51AE
:100FA000D5EC0EF0DBD77DC010F07C5111EC11F0C8
:100FB000D5D7705120EE7BF0DF621200000EBAEC44
:100FC00017F000017D19D8A41200030EBAEC17F037
:100FD00000017E19D8A41200050EBAEC17F000012A
:100FE0007F19D8A41200070EBAEC17F0000180197F
:100FF000D8A4120053508119D8A41200525020EEE8
:1010000082F0DF6212007C5119EF17F0000EBAEC8B
:1010100017F000017C1973E1010EBAEC17F0000122
:101020007D196DE1020EBAEC17F000017E1967E13F
:10103000030EBAEC17F000017F1961E16C895FD0F3
:10104000040EBAEC17F000017C1959E1050EBAEC58
:1010500017F000017D1953E1060EBAEC17F00001FC
:101060007E194DE1070EBAEC17F000017F1947E138
:101070006C8B45D0080EBAEC17F000017C193FE1EB
:10108000090EBAEC17F000017D1939E10A0EBAEC2D
:1010900017F000017E1933E10B0EBAEC17F00001D6
:1010A0007F192DE16C8D2BD00C0EBAEC17F00001DE
:1010B0007C1925E10D0EBAEC17F000017D191FE136
:1010C0000E0EBAEC17F000017E1919E10F0EBAEC02
:1010D00017F000017F1913E16C8F11D06C6B0FD0EA
:1010E0007B390F0BA46FA56BA551F8E1A4518EE0DD
:1010F000010AA6E0030ABEE0010AD6E0EFD76C5170
:10110000F00BF00AD8B44BEC15F01200705120EE41
:101110007BF0DF621200B06B7CC0AFF07DC0B2F03C
:10112000BE6B42D0070E086EBE5158EC16F000019F
:10113000A46FA451890FD96EDA6AAF51BE257AEC3B
:1011400017F0DF6E070E086E0001BE5158EC16F066
:10115000060A0BE0FF0E0001B225A46FA56BFF0E7F
:10116000A523BE51A419A5111EE1070E086E0001AA
:10117000BE5158EC16F0060A03E1070E000109D033
:10118000070E086E0001BE5158EC16F00001A46F66
:10119000A429B16FB151810F836FBED9B0C088F05F
:1011A0007FEC16F0B02BBE2BB251BE5DD8B0120052
:1011B000B9D7705120EE7BF0DF6212007CC0B3F033
:1011C0007551FE0F070BB46FB96B16D0B9517D0F77
:1011D000D96EDA6ADF50186EB351B9250AEC17F0F0
:1011E0000001B951890FD96EDA6AB351B9257AEC89
:1011F00017F0DF6E0001B92BB451B95DE7E38CD96C
:10120000886BB451810F836F7FEF16F0705120EE21
:101210007BF0DF6212007C51ECEC13F00001A46F54
:10122000A429156E7C51D5EC0EF098D6705120EEA5
:101230007BF0DF6212007C51ECEC13F00001A46F34
:10124000A405156E7C51D5EC0EF088D67B51701933
:1012500003E07B29D8A41200B86B030E846F880EBC
:10126000836F856B866B200E876FBD6B5CD9BF511A
:10127000880FD96EDA6AB8510F08BAEC17F0DF6E32
:101280000001B82B100EB86501D004D0BF2B070E9B
:10129000BF65EDD7100EB86501D006D07FEC16F013
:1012A000BD2B020EBD65E2D7BF6BBF5154EC17F0EA
:1012B000000908E0BF518B0FD96EDA6ABF5154ECB8
:1012C00017F005D0BF518B0FD96EDA6A000EDF6EB2
:1012D000BF2B040EBF65E9D77FEC16F0050EB86F83
:1012E000030EBD6F20D9BF51880FD96EDA6AB8518D
:1012F00054EC17F0DF6EB82BBF2B070EBF65F3D78A
:101300007FEC16F0BD2B060EBD65ECD7060C7051B8
:1013100020EE7BF0DF621200030E846F870E836F76
:10132000856B866B220E876F880EDBEC16F07FEFE5
:1013300016F0705120EE7BF0DF621200BA6B75C0C0
:10134000A4F00F0EA417040EA45D12E37FC0BBF03F
:10135000BC6BBC51BB1103E1010EBC6FBB6B010E3A
:10136000BB5D010EBC5907E3010EBC6F000E02D03D
:10137000BC6B010EBB6F52C0ABF053C0ACF0B6D823
:10138000070E846FBFD8BA51BB5DA46F000EBC5965
:10139000A56F040EA45D000EA55902E3040E02D051
:1013A000BA51BB5DB56FB551840F836F7E51BA25BD
:1013B0008B6FB66B0CD0B6518C0FD96EDA6A7E513A
:1013C000BA25B6257AEC17F0DF6E0001B62BB551C1
:1013D000B65DF1E37FEC16F0B551BA27882BBA5110
:1013E000A46FA56BBB51A45DBC51A559CCE3ABC0A8
:1013F00052F0ACC053F01200705120EE7BF0DF626F
:10140000120052C0ADF053C0AEF070D87EC0B7F03D
:1014100012D07E518C08B725D96EDA6A7E517F08CA
:10142000B725E16EE26AE750186EB7510AEC17F083
:10143000DF6E0001B72B75510F0BA46FA56B7E51AA
:10144000A427000EA523FC0EA425A66FFF0EA52140
:10145000A76FB751A86FA96BA951800AAA6FA651AF
:10146000A85DA751800AAA59D4E3ADC052F0AEC01E
:1014700053F0070E846F75510F0B800F836F42D8A6
:101480007EC08BF07FEF16F07951010A01E14ED555
:10149000030A01E14DD5040A01E14CD50E0A01E130
:1014A0004BD5010A01E14AD5020A01E169D5070AD3
:1014B00001E17FD51B0A01E113D60F0A01E126D60F
:1014C000010A01E176D6040A01E1A0D6030A01E18E
:1014D000ADD6010A01E1BAD63E0A01E118D7040AE5
:1014E00001E127D7030AD8A4120086D77D517CC01A
:1014F000A4F0A56BA4C0A5F0A46BA411526EA551D5
:10150000536E1200856B866B270E876F886B7CC0CD
:1015100089F07DC08AF01200070E846F856B866BA0
:101520001A0E876F1A0CBDC088F0010EBF6F010C38
:10153000000178517711D8B41200B46BB451E2D8DD
:10154000390EA625086E000EA721096E62EC17F071
:101550000001B36FB3AFD0D0B3AD0ED0B451D2D879
:10156000380EA625086E000EA721096E62EC17F052
:1015700000017A1901E0C0D0B3A90BD07C2909E0A1
:10158000096A210E086E62EC17F000017C1901E077
:10159000B3D0B3A70BD07D2909E0096A210E086EEC
:1015A00062EC17F000017D1901E0A6D0B451080DDE
:1015B0003B0EF324086E000EF420096E62EC17F067
:1015C0000001A66FB351010BA86FA76BA651A72509
:1015D000A96F000EA821AA6FB451080D3A0EF3248A
:1015E000086E000EF420096E62EC17F00001A66F81
:1015F000B351020BA86FA76BA651A725AB6F000EC6
:10160000A821AC6FB4517ED83D0EA625086E000E01
:10161000A721096E62EC17F00001AD6FB45172D8CA
:101620003C0EA625086E000EA721096E62EC17F08D
:101630000001AE6F20EE77F0DECFA6F0DDCFA7F091
:10164000A951A61BAA51A71BAB51A617AC51A717AE
:10165000A751A61151E17951AD19AE1539E04CD021
:101660000001B4514FD85AD862EC17F00001AF6FA7
:10167000AFC04FF0B35168EC12F03ED00001B4514E
:1016800041D84CD862EC17F00001B06FB0C04FF0F9
:10169000B35100EC12F030D00001B45133D83ED831
:1016A00062EC17F00001B16FB1C04FF0B351FDEC27
:1016B00015F022D00001B45125D830D862EC17F0D3
:1016C0000001B26FB2C04FF0B351E5EC15F014D089
:1016D000B45118D83E0EA625086E000EA721096E3B
:1016E00062EC17F0000A08E0010ABAE0030AC6E05B
:1016F000010AD2E0070ADEE00001B42B070EB46550
:101700001DD7070CA66FA76BD890A637A737D89020
:10171000A637A737D890A637A73712003F0EA625C1
:10172000086E000EA721096E1200E8CF14F0546A6B
:101730007250C00B166E166630D060AE12D0779025
:1017400071AE06D01150D96EDA6A000EDB86719E3A
:1017500060A002D0548001D054900F0E196E600E1C
:101760001AD00F0130AF000C779271AC06D0115037
:10177000D96EDA6A000EDB86719C3051070B546E0D
:10178000020E546005D01150D96EDA6A000EDB8E5D
:101790000F0E196E300E186E5BD01650400A3EE1E7
:1017A00060AE04D00F0E196E600E36D00F0130AF50
:1017B00004D00F0E196E300E2FD00E017DA580AF14
:1017C00004D00E0E196E800E27D00E017DA790AFAB
:1017D00004D00E0E196E900E1FD00E017DA9A0AF81
:1017E00004D00E0E196EA00E17D00E017DABB0AF57
:1017F00004D00E0E196EB00E0FD00E017DADC0AF2D
:1018000004D00E0E196EC00E07D00E017DAFD0AF02
:10181000000C0E0E196ED00E186E0AD071AE000CB0
:101820006F50070B7FEC14F008C018F009C019F0D6
:1018300018C0D9FF19C0DAFFDF501F0B546E779222
:1018400071AC06D01150D96EDA6A000EDB86719C3D
:1018500018C012F019C013F01150D96EDA6ADF6A9D
:1018600020EE05F054D81050D96EDA6A17500F0BDD
:10187000DF6E17AC05D01150D96EDA6A000EDB8C22
:1018800020EE02F044D817A608D01150D96EDA6ABB
:10189000000EDB8A010E176E01D0176A1828086E39
:1018A000000E1920096E14C00AF017C00BF06BEC83
:1018B0000FF0060E1826000E19221050D96EDA6AA3
:1018C000DF50176E156A0DD018C0D9FF19C0DAFFA6
:1018D0000F50E16EE26ADFCFE7FF184A192A0F2A9C
:1018E000152A1750155CF0E377AE06D01150D96E6B
:1018F000DA6A000EDB88779E12C0D9FF13C0DAFFC8
:101900007F0EDF161650800AD8B4719E010C185055
:10191000D9261950DA22DF50176E1200E8CF1CF0DA
:101920001B6A1C50800A04E16BC01BF06B6BB3D0C8
:101930001C50810A02E1010E75D01C50820A02E19E
:10194000050E70D01C50830A02E11B6AA4D01C5003
:10195000940A03E10DEC18F065D01C50950A03E1E0
:101960000CEC18F05FD01C50960A03E10BEC18F059
:1019700059D0890E1C6005D01C507C0FB0EC17F0BC
:1019800051D0880E1C6408D0910E1C6005D01C50EC
:10199000770FA6EC17F046D01C50910A03E170C0F7
:1019A0001BF079D01C50930A03E152C01BF073D096
:1019B0001C50920A02E1535035D01C50970A03E1A3
:1019C0000AEC18F02FD01C50980A03E109EC18F02B
:1019D00029D01C50990A03E108EC18F023D0990E85
:1019E0001C6422D09E0E1C601FD0EEEC17F00BC0C2
:1019F00014F00AC013F009C012F008C011F01C5016
:101A0000660F196E195049D811C00DF012C00EF0B2
:101A100013C00FF014C010F0E82A01D048D8E82E07
:101A2000FDD724D01B6E37D09D0E1C6421D0A20E92
:101A30001C601ED0E9EC17F00BC018F00AC017F0BC
:101A400009C016F008C015F01C50620F1A6E1A502B
:101A500024D815C00DF016C00EF017C00FF018C036
:101A600010F0E82A01D023D8E82EFDD70D50DAD7A0
:101A7000CF0E1C6408D0E00E1C6005D01C50300F47
:101A8000BAEC17F0CFD7DF0E1C6405D01C50200F26
:101A900054EC17F0C7D71B50120003080C6ED890F7
:101AA0000C36D8900C36D8900C360C501200D890CA
:101AB00010320F320E320D321200E8CF13F0146ADA
:101AC000B9D0010E11A0000E126E123212328250E5
:101AD00012187F0B1218826E010E11A2000E126EE8
:101AE000123A1246124682501218BF0B1218826E1A
:101AF000010E11A4000E126E1246124612468250BA
:101B00001218F70B1218826E010E11A6000E126E3B
:101B1000123A82501218EF0B1218826E010E11A8A1
:101B2000000E126E123A124682501218DF0B121873
:101B3000826E010E11AA000E126E80501218FE0B5A
:101B40001218806E010E11AC000E126E12468050FB
:101B50001218FD0B1218806E010E11AE000E126EDF
:101B60001246124680501218FB0B1218806E000E9F
:101B700094EC11F05DD0010E11A0000E126E124611
:101B80001246124680501218F70B1218806E010E82
:101B900011A2000E126E123A124680501218DF0B7C
:101BA0001218806E010E11A8000E126E123A8150AA
:101BB0001218EF0B1218816E010E11AA000E126E90
:101BC0001246124682501218FB0B1218826E010E3A
:101BD00011AC000E126E124681501218FD0B121835
:101BE000816E010E11AE000E126E81501218FE0BA6
:101BF0001218816E010E94EC11F01AD0010E11A092
:101C0000000E126E123A1246124681501218BF0B85
:101C10001218816E010E11A2000E126E123A1246B7
:101C200081501218DF0B1218816E020E94EC11F025
:101C3000146E07D0135001E144D7010A9CE0030A57
:101C4000DDE0145012000F0E1C6E200E1B6E0F0EE6
:101C50001E6E100E1D6E0F0E206E1F6A0E010E0EF0
:101C6000226E800E216E0E0E246E900E236E0E0ECE
:101C7000266EA00E256E0E0E286EB00E276E0E0E6E
:101C80002A6EC00E296E0E0E2C6ED00E2B6E725068
:101C9000C00B2D6E2D6602D0020E01D0080E2E6EE6
:101CA000D8907D31306E346A7CD03450020DF350C0
:101CB0001B0FD96EDA6ADECF35F0DDCF36F035C0D6
:101CC00031F036C032F0020E346404D0D890303295
:101CD00030A066D035C0D9FF36C0DAFFDF501A6EAB
:101CE0001AB65ED035C0D9FF36C0DAFFFC0EDF165B
:101CF00019C01AF0030E1A1635C0D9FF36C0DAFF24
:101D00001A50DF1219AC04D018504009336E02D0BB
:101D100018C033F020EE05F03550D9263650DA22BF
:101D200033C0DFFF19AA03D0010E336E01D0336A2E
:101D30003528086E000E3620096E12C00AF013C056
:101D40000BF014C00CF015C00DF033C00EF087EC92
:101D500010F0060E3526000E36222F6A0FD016C060
:101D6000D9FF17C0DAFF35C0E1FF36C0E2FFDFCF91
:101D7000E7FF164A172A354A362A2F2A18502F5CB1
:101D8000EEE331C0D9FF32C0DAFFDF501A6E1AB469
:101D9000010C31C0D9FF32C0DAFF000EDB86010C26
:101DA000342A2E50345C81E3000CE8CF17F0151C68
:101DB000166E5350521070E117660FD001EC18F0F8
:101DC000096A210E086E15C00AF0ADEC15F0096A1B
:101DD000210E086E62EC17F073D017040FE101ECCE
:101DE00018F0096A220E086E15C00AF0ADEC15F065
:101DF000096A220E086E62EC17F062D0040E1764B6
:101E000012D0170E17600FD001EC18F0210E5BD81E
:101E1000ADEC15F0210E1724086E096A000E092298
:101E200062EC17F04DD01750020A0FE101EC18F0E8
:101E3000096A230E086E15C00AF0ADEC15F015C046
:101E400011F0000E5DEC0DF03BD01750030A0FE1CE
:101E500001EC18F0096A240E086E15C00AF0ADEC0A
:101E600015F015C011F0010E5DEC0DF029D01750E2
:101E7000040A27E101EC18F0096A250E086E15C066
:101E80000AF0ADEC15F015C011F0020E5DEC0DF08E
:101E9000166E030E161615D05204531012E1410EA1
:101EA00017600FD001EC18F0380E0DD8ADEC15F01E
:101EB000380E1724086E096A000E092262EC17F02A
:101EC000166E165012001724086E096A000E0922B9
:101ED00015C00AF0000C0AC00EF00B662BD00E5095
:101EE000D96E62D80C36D8900C36D8900C34DF6E90
:101EF0000E50D96EDA6AD92ADA6A73D8D8900C32C1
:101F00000D2EFCD70C5059D8050E0D6ED8900C3202
:101F10000D2EFCD70E50D96EDA6A0C50DF123DD868
:101F2000DF6A0E50D96EDA6A030ED926DA6A000E1D
:101F3000DF6E000C32D855D8D8900C360D2EFCD759
:101F40000C50DF6E0E50D96EDA6A030ED9262CD8EB
:101F50000C32D8900C32D8900C302FD8030E0C16BF
:101F60001CD80C50DF1208C0D9FF09C0DAFFDF50BF
:101F70000C6ED8900C32D8900C32D8900C321C0ECB
:101F80000C160BD80C50DF1222D8E12AE26ADFCF00
:101F9000E7FF1DD8DFCFE7FF12000E50D96EDA6AD7
:101FA000020ED926DA6A1200DA6A08C0E1FF09C017
:101FB000E2FFE7500C6ED8901200DF6E084A092A43
:101FC00008C0D9FF09C0DAFFDF500C6E1200084AC2
:101FD000092A08C0D9FF09C0DAFF0E50E16EE26A93
:101FE000120008C0E1FF09C0E2FFE7500C6E050EC9
:101FF0000D6E050CCAEC15F0EBEC16F0000904E1CF
:10200000D0EC12F0C4EC17F04BEC15F0096A230E7B
:10201000086E62EC17F0116E000E5DEC0DF0096AAF
:10202000240E086E62EC17F0116E010E5DEC0DF0DF
:10203000096A250E086E62EC17F0116E020E5DEC57
:102040000DF00400FA0E00016E650ED071050CE073
:10205000706901EC18F0096A010E086EFF0E0A683B
:10206000ADEC15F04BEC15F0756B2DEC16F01CD0AB
:10207000702903E1010E716F23D0030E716F28ECFC
:1020800017F01ED035EC13F01BD075AF19D0785176
:102090007711D8B491EC07F098EC0AF011D004EC69
:1020A00018F00ED0716B0CD000017151E1E0010A03
:1020B000E9E0030AE4E0010AE8E0070AF0E0F2D709
:1020C000E90E0001605D030E6159000E6259000EB9
:1020D00063590CE3606B616B626B636B552A23EC95
:1020E00015F07151030AD8B407EC18F03B0E6A657D
:1020F0000BD06A6B692B3B0E696502D0696B682B4C
:10210000170E686501D0686B06EC18F09AD70A0EB6
:10211000116E0E6622D01150D96EDA6ADF500F6E42
:10212000D8900F32D8900F32D8900F3062D8D92A79
:10213000DA6A72D8D8900F36102EFCD708C0D9FFB3
:1021400046D86AD8D8900F36102EFCD70F5008C04A
:10215000D9FF09C0DAFFDF6E1200115042D8050E18
:10216000106ED8900F32102EFCD70F5042D8030EAD
:1021700049D80F3608C0D9FF2AD8020E43D80F34E9
:10218000E00B08C0D9FF09C0DAFFDF6E08C0D9FF35
:1021900009C0DAFF000EDB86115023D8030E0F169C
:1021A00008C0D9FF14D8D92ADA6A08C0E1FF09C0EB
:1021B000E2FFDFCFE7FF084A092A1150D96EDA6A39
:1021C00008C0E1FF09C0E2FFDFCFE7FF120009C04E
:1021D000DAFF0F50DF12084A092A1150D96EDA6A65
:1021E0001200D96EDA6A020ED926DA6ADF500F6E53
:1021F000120008C0D9FF09C0DAFFDF6E1150D96E96
:10220000DA6A1200D926DA6ADF500F6ED8900F36DC
:10221000D8900F36D8901200DF500F6E050E106E5A
:10222000050CE8CF16F0101C156E830E16640ED048
:10223000890E16600BD010C00CF016507C0F46ECC7
:1022400017F016507C0FB0EC17F069D01650920AB8
:102250000DE11050126E116A5250136E146A111073
:10226000526E12501410536E535059D01650930A98
:102270000BE1116A5350126E10501110526E125031
:10228000536E52C015F04ED0880E166419D0910EC0
:10229000166016D053C011F011C012F0136A122844
:1022A00002E1522802E0101C3AD010C00CF0165087
:1022B000770FA5EC16F01650770FA6EC17F02FD07D
:1022C000CF0E166417D0E00E166014D053C011F074
:1022D00011C012F0136A1228E6E15228E4E110C09E
:1022E0000CF01650300FB7EC16F01650300FBAEC59
:1022F00017F015D01650A20AD6E11050550A04E185
:10230000646B656B550E0BD01050AA0A0BE1E80EFA
:10231000645D030E655905E2FDEC17F0AA0E156E1B
:1023200001D0156A15501200E8CF0FF0106A60D086
:102330008234E836010B086E8238E832E832010B4D
:10234000020DF3CF09F08230E832E832010B040DC0
:10235000F3CF0AF08238010B080DF3CF0BF082386F
:10236000E832010B100DF3CF0CF08050010B200D63
:10237000F3CF0DF08030010B400DF3CF0EF0803025
:10238000E832010B800DF3500E240D241FD0803055
:10239000E832E832010B086E8038E832010B020D9A
:1023A000F3CF09F08138010B100DF3CF0AF0823022
:1023B000E832010B200DF3CF0BF08130010B400D03
:1023C000F3CF0CF08150010B800DF3500C240B2443
:1023D0000A2409240AD08138E832E832010B086E59
:1023E0008138E832010B020DF3500824106E06D03C
:1023F0000F509EE0010ACBE0030AEDE010501200FE
:102400004FAE0DD04F9E230E4F24086E096A000E6A
:10241000092262EC17F000017D19D8A41200030E06
:102420004F6001D0030C140E4F6401D0140C140E35
:10243000A46F040EA56F4F50F8EC14F020D0829ECC
:102440001200829C12008296120082981200829AD8
:1024500012008090120080921200809412008096E8
:102460001200809A120081981200829412008192C8
:10247000120081901200819C1200819A12004F502C
:10248000030ADDE0070ADDE0010ADDE0030ADDE022
:10249000010ADDE00F0ADDE0010ADDE0030ADDE00C
:1024A000010ADDE0070ADDE0010AD8B41200030AE0
:1024B000D8B41200010AD7E01F0AD7E0010AD7E01A
:1024C000030AD7E0010AD7E0070AD8A41200D5D73B
:1024D0004FAE0DD04F9E230E4F24086E096A000E9A
:1024E000092262EC17F000017D19D8A41200030E36
:1024F0004F6001D0030C140E4F6401D0140C140E65
:10250000A46F030EA56F4F50F8EC14F020D0828E0C
:102510001200828C12008286120082881200828A47
:102520001200808012008082120080841200808657
:102530001200808A12008188120082841200818237
:10254000120081801200818C1200818A12004F508B
:10255000030ADDE0070ADDE0010ADDE0030ADDE051
:10256000010ADDE00F0ADDE0010ADDE0030ADDE03B
:10257000010ADDE0070ADDE0010AD8B41200030A0F
:10258000D8B41200010AD7E01F0AD7E0010AD7E049
:10259000030AD7E0010AD7E0070AD8A41200D5D76A
:1025A00001EC18F0096A210E086E000E0A6AADEC03
:1025B00015F001EC18F0096A220E086E000E0A6A86
:1025C000ADEC15F0030E0F6E01EC18F0230E0F2486
:1025D000086E096A000E09220FC00AF0ADEC15F072
:1025E0000F2A140E0F64F0D701EC18F0096A230EBD
:1025F000086E000E0A6AADEC15F001EC18F0096ADD
:10260000240E086E000E0A6AADEC15F001EC18F00D
:10261000096A250E086E000E0A6AADEC15F00F6A05
:102620000E6A01EC18F00E500FC00CF00D6AD89035
:102630000C360D36D8900C360D36D8900C360D363B
:102640000C26000E0D22380E0C24086E000E0D20F4
:10265000096E000E0A6AADEC15F00E2A070E0E6424
:10266000E0D70F2A0F64DCD7070C53D0572810E0AF
:10267000810E836F846B856B866B020E876F57C0EC
:1026800088F07FEC16F0010E726F666B676B48D0B6
:10269000040E716F810E836F8869070E846F856BDE
:1026A000866B030E876F7FEC16F03AD075AF0FD0B4
:1026B0007851771135E17951030A32E1576603D039
:1026C000020E716FE2D7572A726B736B29D0E90E35
:1026D000665D030E675924E3732B020E736517D0F2
:1026E000576605D0572A726B666B676BEED757C07B
:1026F00070F0030E716F726B70519BEC17F0400E0F
:1027000090EC17F00001736B28EC17F009D0726B96
:1027100007D000017251AAE0010AC8E0030AF7E1FC
:10272000756B120041C090F0916B926B936B92C0ED
:1027300093F091C092F090C091F0906B3F50946FE5
:102740004050956F966B976B95C097F094C096F03C
:10275000956B946B43C098F0996B9A6B9B6B1A0EB8
:10276000D890983799379A379B37E82EF9D79451F4
:1027700098119C6F955199119D6F96519A119E6F6A
:1027800097519B119F6F90519C11A06F91519D117A
:10279000A16F92519E11A26F93519F11A36F42504E
:1027A000A011476EA151486EA251496EA3514A6EC5
:1027B00047C037F048C038F049C039F04AC03AF055
:1027C00044C03BF045C03CF046C03DF08DEC15F0F8
:1027D000000901E1000C010CE8CF12F0116A53501E
:1027E000521037E1126606D0096A210E086E62ECBB
:1027F00017F03DD0120406E1096A220E086E62EC61
:1028000017F035D0040E12640CD0170E126009D0E8
:10281000210E1224086E096A000E092262EC17F0DC
:1028200026D01250020A04E1000E94EC11F01FD0E1
:102830001250030A04E1010E94EC11F018D012506A
:10284000040A16E1020E94EC11F0116E030E11163B
:102850000FD0520453100CE1410E126009D0380E13
:102860001224086E096A000E092262EC17F0116E3C
:1028700011501200800E6EEC17F0090E0E01436F1E
:10288000FC0E446F010E456F200E706E728E729CAE
:10289000606A0F01306B0E01806B906BA06BB06BA8
:1028A000C06BD06BE00E7D6FE06B080EE16FE26BEA
:1028B000E36BE46B080EE56FE66BE76B030E466FA8
:1028C000476B716B110E726F736F746B756B766BF8
:1028D000776B786B540E796F050E7A6F7B6B7B6B21
:1028E0000F0EF86FE00EF96FFA6BFB6BF987FC6B5C
:1028F000FD6BFE6BFF6BFD87000E6EEF17F0E8CFF0
:102900000BF028D00F0E0D6E600E22D00F010F0EAF
:102910000D6E300E1DD00E010E0E0D6E800E18D0F5
:102920000E010E0E0D6E900E13D00E010E0E0D6EDA
:10293000A00E0ED00E010E0E0D6EB00E09D00E01BF
:102940000E0E0D6EC00E04D00E010E0E0D6ED00ECA
:102950000C6E0FD00B50D6E0010AD8E0030ADBE082
:10296000010ADEE0070AE1E0010AE4E0030AE7E029
:10297000EBD70CC008F00DC009F01200E8CF27F02B
:1029800021C01AF022C01BF0280E92EC16F00009AC
:1029900001E1000C1F50D96EDA6A28C0DFFF1E501B
:1029A000D96EDA6A29C0DFFF2A50236E010E2B147C
:1029B000246E2750D96EDA6A23C0DEFF24C0DDFF03
:1029C0002050D96EDA6A28C023F029C024F02AC02A
:1029D00025F02BC026F01B0E05D0D89026322532CC
:1029E00024322332E82EF9D72350070BDF6E010C77
:1029F000E8CF4EF0030E4E5E4EC04BF0096A210E3A
:102A0000086E62EC17F04C6E260E4E24086E096AB2
:102A1000000E092262EC17F04D6E0001A4C03FF0D9
:102A2000406AA5C041F070C042F0030E436E446E90
:102A30004B0E456E000E466E0F0E466E5F0E4564E1
:102A4000466A92EF13F0742B3B0E74650DD0746BD5
:102A50006F2B7151030A08E1DFEC17F00001A46F3E
:102A6000E4EC17F06CEC16F03B0E6F6502D06F6B68
:102A70006D2B170E6D6501D06D6B7151030AD8A4D3
:102A800012006C2B6CC04DF00F0E4D16020E4D5CFB
:102A9000D8B06C6B1200020E566EF3EC17F000010A
:102AA000706F706701D07069756B766B776B786B40
:102AB000796B836B846B856B866B876B6B6B576AEB
:102AC000716B726B736B526A536A666B676B646B84
:102AD000656B746B6F6B6D6B1200F8EC17F000098F
:102AE00018E1000175510F0B050AD8A41200F8EC8B
:102AF00017F000017B19D8B412007B5190EC17F04D
:102B000000017069FF0E9BEC17F0010E0001716F60
:102B1000010C00017B5190EF17F03E6A556A17D007
:102B200037C012F038C013F039C014F03AC015F0B5
:102B30003CC016F03DC017F03BC018F0200E196ED7
:102B400023EC0EF0000903E0010E3E6E02D055505A
:102B5000E7E00001836B3E5012000950030B756ED5
:102B600008C074FF0AC073FF7F9E7F9C7F84000EA5
:102B7000F2BE010E0B6EF29E550E7E6EAA0E7E6E9A
:102B80007F827FB2FED70BB002D0F29E01D0F28ED0
:102B90007F941200C4EC17F00F015D6B5C6B926ABE
:102BA000806A0C0E936E816A010E946E826A920E98
:102BB00037EC17F0FB0E096E1D0E086ECDEC17F00A
:102BC0003AEC14F0F28CF28E1200806A816A826A0A
:102BD000516A030E506E140EA46F040EA56F505070
:102BE000F8EC14F0504A512A5150800A800F150E0B
:102BF000D8B4505CD8B01200EED780688168826883
:102C0000516A030E506E140EA46F030EA56F505040
:102C1000F8EC14F0504A512A5150800A800F150EDA
:102C2000D8B4505CD8B01200EED775510F0B0D6EB2
:102C30000D50D8B41200705120EE7BF0DF6212000C
:102C40000D0405E0010E0D64010C7C67010C706938
:102C5000FF0E9BEC17F04BEF15F075BF1200790ECD
:102C60001E6E7A0E1F6E760E206E750E216E7B0E16
:102C7000226E770EBEEC14F02C6E2C50D8B41200DD
:102C80000001758F120075C04CF00F0E4C164C04ED
:102C9000D8A41200705120EE7BF0DF621200800E8B
:102CA000836F846B856B866B030E876F7FEF16F0E7
:102CB000E8CF09F0080E0A6E0B6AD89009340B347D
:102CC0000B6ED890093608500B5C02E308500B5E7F
:102CD0000A2EF3D70B501200E8CF4CF0830E000100
:102CE000836F070E846F866B140E856F090E876FD6
:102CF000886B4CC089F0A4C08AF07FEF16F085C0C5
:102D00003FF086C040F087C041F070C042F084C000
:102D100043F083510F0B446E000E466E880E456ED5
:102D200092EF13F0E8CF1CF075BF000C1BC00FF042
:102D30001AC010F01D0E116E1C5095EC0BF000091E
:102D4000F4E01DAC1DAA000C010CE8CF0DF0070E3D
:102D50000D6401D0070C01EC18F0090E0D24086E6B
:102D6000096A000E09220CC00AF0ADEF15F0E8CF99
:102D70000DF00F0E0D6401D00F0C01EC18F0110EC8
:102D80000D24086E096A000E09220CC00AF0ADEF8E
:102D900015F075510F0B020AD8A41200705120EEE5
:102DA0007BF0DF6212007CC070F070519BEC17F07A
:102DB000400E90EF17F0070E886F480E896F020ED5
:102DC000086E0850880FD96EDA6ADF6A082A070E83
:102DD0000864F7D7070CF8EC17F0C00B400A01E1C4
:102DE000010CFF0E9BEC17F0000E90EC17F0A00EFC
:102DF00085EC17F0000C00EE60F0300EEE6AE8068D
:102E0000FDE100EE52F0070EEE6AE806FDE100017A
:102E1000FAEF0FF0E8CF19F07F0E196405D018C053
:102E200010F0195011EF11F018C015F01950D5EF2E
:102E30000EF0E8CF0CF00C04D8A4120001EC18F04E
:102E4000096A086AFF0E0A68ADEC15F0FF0012006F
:102E5000810E0001836F846B856B866B020E876F1A
:102E600070C088F07FEC16F0010E566E010CE8CFB2
:102E700008F008507F0BD56ED76AD66AF29408AE78
:102E800002D0F28A01D0F29AD58E1200E8CF0DF06E
:102E900001EC18F0040E0D24086E096A000E0922D8
:102EA0000CC00AF0ADEF15F0E8CF09F00950000FA3
:102EB000086E08C0F6FF0F0EF76E000EF86E0800E1
:102EC000F55012000950030B756E08C074FF7F9C0B
:102ED0007F9E7F8000F000F073501200E8CF08F072
:102EE0001F0E6F1608506F126F50E00B0818D8B401
:102EF0001200FAD7E8CF1DF07F0E1D6403D01D50DD
:102F00008EEF0CF01D50ECEF13F0E8CF0CF001EC5D
:102F100018F0096A030E086E0CC00AF0ADEF15F048
:102F2000E8CF0CF001EC18F0096A020E086E0CC034
:102F30000AF0ADEF15F0E8CF0CF001EC18F0096ADB
:102F4000010E086E0CC00AF0ADEF15F0E8CF0AF0E4
:102F5000090E0A24086E096A000E092262EF17F0B2
:102F6000E8CF0AF0040E0A24086E096A000E09224E
:102F700062EF17F0E8CF0AF0110E0A24086E096A12
:102F8000000E092262EF17F00001606B616B626B4B
:102F9000636B6A6B696B686B120008C00AF009C04A
:102FA0000BF00BC0D7FF0AC0D6FF120001C003F020
:102FB00002C004F004C0D7FF03C0D6FF1200096AA4
:102FC000220E086E62EF17F0096A210E086E62EF9A
:102FD00017F0086A096A0A6A0B6A1200086A096A25
:102FE0000A6A0B6A1200096A010E086E62EF17F096
:102FF000096A020E086E62EF17F0D0EC12F0C4EF0F
:1030000017F07FA21200FDD7566A120012001200BC
:0C301000010C080C010C000C000C010C61
:020000040020DA
:08000000FFFFFFFFFFFFFFFF00
:020000040030CA
:0E00000015126F7EFF8991FF0FC00FE00F40B9
:00000001FF
