:040800005BEF04F0B6
:10081800D8CF05F0E8CF06F0E0CF07F0F2A401D07A
:1008280001D03ED0FB0E026E1D0E016E95EC18F045
:100838000001664B672B644B652B010E6027000E89
:100848006123000E6223000E632382A001D001D031
:1008580002D06E6B01D06E2B582A5650020AD8A4CB
:1008680001D001D00ED0640E586401D001D009D057
:1008780082A201D001D002D0829201D08282586A2D
:100888000ED05604D8A401D001D003D08282586A71
:1008980006D0566601D001D002D08292586AF294EE
:1008A80007C0E0FF06C0E8FF05C0D8FF1000BAEF98
:0208B80017F037
:100F00007777772E6575726F736F757263652E7361
:100F1000652F6F64657373613030312E786D6C00AE
:100F2000000078517711D8A41200E2D22CEF16F00D
:100F300002EF17F088EF17F0D4EF16F075510F0B92
:100F4000020AD8A41200705120EE7BF0DF6212007A
:100F5000800E7C6111D07C51ABEC14F00001896FE4
:100F60007CC088F0030E846F820E836F856B866B66
:100F70000A0E876F3EEF17F07C5100EC0DF0EED7B4
:100F800075510F0B030AD8A41200705120EE7BF0AC
:100F9000DF621200800E7C6106D07DC015F07C51AE
:100FA000A9EC10F0DBD77DC010F07C51D0EC11F033
:100FB000D5D7705120EE7BF0DF621200000E79EC85
:100FC00018F000017D19D8A41200030E79EC18F076
:100FD00000017E19D8A41200050E79EC18F000016A
:100FE0007F19D8A41200070E79EC18F000018019BF
:100FF000D8A4120053508119D8A41200525020EEE8
:1010000082F0DF6212007C51D8EF17F0000E79EC0D
:1010100018F000017C1973E1010E79EC18F0000161
:101020007D196DE1020E79EC18F000017E1967E17F
:10103000030E79EC18F000017F1961E16C895FD033
:10104000040E79EC18F000017C1959E1050E79ECD9
:1010500018F000017D1953E1060E79EC18F000013B
:101060007E194DE1070E79EC18F000017F1947E178
:101070006C8B45D0080E79EC18F000017C193FE12B
:10108000090E79EC18F000017D1939E10A0E79ECAE
:1010900018F000017E1933E10B0E79EC18F0000115
:1010A0007F192DE16C8D2BD00C0E79EC18F000011E
:1010B0007C1925E10D0E79EC18F000017D191FE176
:1010C0000E0E79EC18F000017E1919E10F0E79EC83
:1010D00018F000017F1913E16C8F11D06C6B0FD0E9
:1010E0007B390F0BA46FA56BA551F8E1A4518EE0DD
:1010F000010AA6E0030ABEE0010AD6E0EFD76C5170
:10110000F00BF00AD8B40AEC16F01200705120EE81
:101110007BF0DF621200B06B7CC0AFF07DC0B2F03C
:10112000BE6B47D0070E086EBE5117EC17F00001DA
:10113000A46FA451890FD96EDA6AAF51BE2539EC7C
:1011400018F0DF6E070E086E0001BE5117EC17F0A5
:10115000060A0BE0FF0E0001B225A46FA56BFF0E7F
:10116000A523BE51A419A51123E1070E086E0001A5
:10117000BE5117EC17F0060A03E1070E000109D073
:10118000070E086E0001BE5117EC17F00001A46FA6
:10119000A429B16FB151810F836F070E846F856BE6
:1011A000866B1A0E876FB0C088F03EEC17F0B02B3C
:1011B000BE2BB251BE5DD8B01200B4D7705120EE34
:1011C0007BF0DF6212007CC0B3F07551FE0F070B9D
:1011D000B46FB96B16D0B9517D0FD96EDA6ADF5092
:1011E000186EB351B925C9EC17F00001B951890F38
:1011F000D96EDA6AB351B92539EC18F0DF6E000107
:10120000B92BB451B95DE7E3070E846F856B866B2C
:101210001A0E876F886BB451810F836F3EEF17F002
:10122000705120EE7BF0DF6212007C51ABEC14F0C9
:101230000001A46FA429156E7C51A9EC10F08ED684
:10124000705120EE7BF0DF6212007C51ABEC14F0A9
:101250000001A46FA405156E7C51A9EC10F07ED698
:101260007B51701903E07B29D8A41200B86B030EE0
:10127000846F880E836F856B866B200E876FBD6BC6
:10128000BDC088F0010EBF6FBF51880FD96EDA6AFA
:10129000B8510F0879EC18F0DF6E0001B82B100E72
:1012A000B86501D004D0BF2B070EBF65EDD7100E77
:1012B000B86501D006D03EEC17F0BD2B020EBD651F
:1012C000DFD7BF6BBF5113EC18F0000908E0BF5126
:1012D0008B0FD96EDA6ABF5113EC18F005D0BF51ED
:1012E0008B0FD96EDA6A000EDF6EBF2B040EBF655E
:1012F000E9D73EEC17F0050EB86F030EBD6FBDC009
:1013000088F0010EBF6FBF51880FD96EDA6AB851ED
:1013100013EC18F0DF6EB82BBF2B070EBF65F3D7A9
:101320003EEC17F0BD2B060EBD65E9D7060C7051DB
:1013300020EE7BF0DF621200030E846F870E836F56
:10134000856B866B220E876F880E9AEC17F03EEF46
:1013500017F0705120EE7BF0DF621200BA6B75C09F
:10136000A4F00F0EA417040EA45D12E37FC0BBF01F
:10137000BC6BBC51BB1103E1010EBC6FBB6B010E1A
:10138000BB5D010EBC5907E3010EBC6F000E02D01D
:10139000BC6B010EBB6F52C0ABF053C0ACF07D51C3
:1013A0007CC0A4F0A56BA4C0A5F0A46BA411526EE0
:1013B000A551536E070E846F856B866B270E876F62
:1013C000886B7CC089F07DC08AF0BA51BB5DA46F88
:1013D000000EBC59A56F040EA45D000EA55902E3D2
:1013E000040E02D0BA51BB5DB56FB551840F836F47
:1013F0007E51BA258B6FB66B0CD0B6518C0FD96E5F
:10140000DA6A7E51BA25B62539EC18F0DF6E000194
:10141000B62BB551B65DF1E33EEC17F0B551BA27E6
:10142000882BBA51A46FA56BBB51A45DBC51A559C3
:10143000CCE3ABC052F0ACC053F01200705120EEC0
:101440007BF0DF62120052C0ADF053C0AEF07D51B0
:101450007CC0A4F0A56BA4C0A5F0A46BA411526E2F
:10146000A551536E7EC0B7F012D07E518C08B725BF
:10147000D96EDA6A7E517F08B725E16EE26AE750DD
:10148000186EB751C9EC17F0DF6E0001B72B75511C
:101490000F0BA46FA56B7E51A427000EA523FC0E95
:1014A000A425A66FFF0EA521A76FB751A86FA96B42
:1014B000A951800AAA6FA651A85DA751800AAA590E
:1014C000D4E3ADC052F0AEC053F0070E846F755137
:1014D0000F0B800F836F856B866B270E876F886B72
:1014E0007CC089F07DC08AF07EC08BF03EEF17F0A3
:1014F0007951010A01E11AD5030A01E119D5040A5B
:1015000001E118D50E0A01E117D5010A01E116D54E
:10151000020A01E135D5070A01E14BD51B0A01E1B9
:10152000DFD50F0A01E1F2D5010A01E147D6040A2D
:1015300001E176D6030A01E183D6010A01E190D6E2
:101540003E0A01E1F4D6040A01E103D7030AD8A454
:10155000120074D7000178517711D8B41200B46B1F
:10156000B451A66FA76BD890A637A737D890A637E7
:10157000A737D890A637A737390EA625086E000ED4
:10158000A721096E21EC18F00001B36FB3AF36D17B
:10159000B3AD18D0B451A66FA76BD890A637A737B4
:1015A000D890A637A737D890A637A737380EA625E4
:1015B000086E000EA721096E21EC18F000017A19BF
:1015C00001E01CD1B3A90BD07C2909E0096A210EE6
:1015D000086E21EC18F000017C1901E00FD1B3A7CF
:1015E0000BD07D2909E0096A210E086E21EC18F064
:1015F00000017D1901E002D1B451080D3B0EF32426
:10160000086E000EF420096E21EC18F00001A66FA0
:10161000B351010BA86FA76BA651A725A96F000EA8
:10162000A821AA6FB451080D3A0EF324086E000EDB
:10163000F420096E21EC18F00001A66FB351020BE3
:10164000A86FA76BA651A725AB6F000EA821AC6FA2
:10165000B451A66FA76BD890A637A737D890A637F6
:10166000A737D890A637A7373D0EA625086E000EDF
:10167000A721096E21EC18F00001AD6FB451A66FDF
:10168000A76BD890A637A737D890A637A737D8909A
:10169000A637A7373C0EA625086E000EA721096EB7
:1016A00021EC18F00001AE6F20EE77F0DECFA6F04F
:1016B000DDCFA7F0A951A61BAA51A71BAB51A617B6
:1016C000AC51A717A751A61101E098D07951AD19D7
:1016D000AE1575E093D00001B451A66FA76BD890FA
:1016E000A637A737D890A637A737D890A637A737F9
:1016F0003F0EA625086E000EA721096E21EC18F0FA
:101700000001AF6FAFC04FF0B35127EC13F076D0AC
:101710000001B451A66FA76BD890A637A737D89011
:10172000A637A737D890A637A7373F0EA625086E4D
:10173000000EA721096E21EC18F00001B06FB0C0B7
:101740004FF0B351BFEC12F059D00001B451A66F65
:10175000A76BD890A637A737D890A637A737D890C9
:10176000A637A7373F0EA625086E000EA721096EE3
:1017700021EC18F00001B16FB1C04FF0B351BCECD7
:1017800016F03CD00001B451A66FA76BD890A637D5
:10179000A737D890A637A737D890A637A7373F0ED8
:1017A000A625086E000EA721096E21EC18F0000195
:1017B000B26FB2C04FF0B351A4EC16F01FD0B451C9
:1017C000A66FA76BD890A637A737D890A637A737AC
:1017D000D890A637A7373E0EA625086E000EA72183
:1017E000096E21EC18F0000A09E0010A01E173D743
:1017F000030A8EE0010AA9E0070AC4E00001B42B45
:10180000070EB465ADD6070CE8CF14F0546A7250D9
:10181000C00B166E166630D060AE12D0779071AEE7
:1018200006D01150D96EDA6A000EDB86719E60A078
:1018300002D0548001D054900F0E196E600E1AD051
:101840000F0130AF000C779271AC06D01150D96EF9
:10185000DA6A000EDB86719C3051070B546E020E63
:10186000546005D01150D96EDA6A000EDB8E0F0E6F
:10187000196E300E186E5BD01650400A3EE160AE15
:1018800004D00F0E196E600E36D00F0130AF04D0A9
:101890000F0E196E300E2FD00E017DA580AF04D033
:1018A0000E0E196E800E27D00E017DA790AF04D0CA
:1018B0000E0E196E900E1FD00E017DA9A0AF04D0A0
:1018C0000E0E196EA00E17D00E017DABB0AF04D076
:1018D0000E0E196EB00E0FD00E017DADC0AF04D04C
:1018E0000E0E196EC00E07D00E017DAFD0AF000CEA
:1018F0000E0E196ED00E186E0AD071AE000C6F501D
:10190000070B3EEC15F008C018F009C019F018C01C
:10191000D9FF19C0DAFFDF501F0B546E779271ACFC
:1019200006D01150D96EDA6A000EDB86719C18C0A1
:1019300012F019C013F01150D96EDA6ADF6A20EE86
:1019400005F01850D9261950DA22DF50176E1050C2
:10195000D96EDA6A17500F0BDF6E17AC05D0115035
:10196000D96EDA6A000EDB8C20EE02F01850D92610
:101970001950DA22DF50176E17A608D01150D96E11
:10198000DA6A000EDB8A010E176E01D0176A18287A
:10199000086E000E1920096E14C00AF017C00BF073
:1019A0004FEC0FF0060E1826000E19221050D96EBB
:1019B000DA6ADF50176E156A0DD018C0D9FF19C04A
:1019C000DAFF0F50E16EE26ADFCFE7FF184A192A0B
:1019D0000F2A152A1750155CF0E377AE06D0115088
:1019E000D96EDA6A000EDB88779E12C0D9FF13C069
:1019F000DAFF7F0EDF161650800AD8B4719E010CF4
:101A0000E8CF1CF01B6A1C50800A04E16BC01BF07D
:101A10006B6BCBD01C50810A02E1010E81D01C50AF
:101A2000820A02E1050E7CD01C50830A02E11B6A87
:101A3000BCD01C50940A03E1CCEC18F071D01C50BF
:101A4000950A03E1CBEC18F06BD01C50960A03E129
:101A5000CAEC18F065D0890E1C6005D01C507C0FB4
:101A60006FEC18F05DD0880E1C6408D0910E1C60DD
:101A700005D01C50770F65EC18F052D01C50910A1D
:101A800003E170C01BF091D01C50930A03E152C0D7
:101A90001BF08BD01C50920A02E1535041D01C50D5
:101AA000970A03E1C9EC18F03BD01C50980A03E1F7
:101AB000C8EC18F035D01C50990A03E1C7EC18F0B7
:101AC0002FD0990E1C642ED09E0E1C602BD0ADEC36
:101AD00018F00BC014F00AC013F009C012F008C0CF
:101AE00011F01C50660F196E195003080C6ED89037
:101AF0000C36D8900C36D8900C360C5011C00DF026
:101B000012C00EF013C00FF014C010F0E82A05D078
:101B1000D89010320F320E320D32E82EF9D730D075
:101B20001B6E43D09D0E1C642DD0A20E1C602AD0CB
:101B3000A8EC18F00BC018F00AC017F009C016F096
:101B400008C015F01C50620F1A6E1A5003080C6E74
:101B5000D8900C36D8900C36D8900C360C5015C056
:101B60000DF016C00EF017C00FF018C010F0E82AE4
:101B700005D0D89010320F320E320D32E82EF9D740
:101B80000D50CED7CF0E1C6408D0E00E1C6005D0DF
:101B90001C50300F79EC18F0C3D7DF0E1C6405D051
:101BA0001C50200F13EC18F0BBD71B501200E8CFCD
:101BB00013F0146AB9D0010E11A0000E126E123289
:101BC0001232825012187F0B1218826E010E11A26F
:101BD000000E126E123A1246124682501218BF0BB5
:101BE0001218826E010E11A4000E126E12461246D9
:101BF000124682501218F70B1218826E010E11A6AF
:101C0000000E126E123A82501218EF0B1218826EEA
:101C1000010E11A8000E126E123A124682501218CE
:101C2000DF0B1218826E010E11AA000E126E805088
:101C30001218FE0B1218806E010E11AC000E126EFF
:101C4000124680501218FD0B1218806E010E11AE54
:101C5000000E126E1246124680501218FB0B12181C
:101C6000806E000E53EC12F05DD0010E11A0000E3C
:101C7000126E12461246124680501218F70B1218B6
:101C8000806E010E11A2000E126E123A12468050A2
:101C90001218DF0B1218806E010E11A8000E126EC2
:101CA000123A81501218EF0B1218816E010E11AA10
:101CB000000E126E1246124682501218FB0B1218BA
:101CC000826E010E11AC000E126E12468150121877
:101CD000FD0B1218816E010E11AE000E126E8150B6
:101CE0001218FE0B1218816E010E53EC12F01AD06E
:101CF000010E11A0000E126E123A124612468150C9
:101D00001218BF0B1218816E010E11A2000E126E76
:101D1000123A124681501218DF0B1218816E020E11
:101D200053EC12F0146E07D0135001E144D7010AAE
:101D30009CE0030ADDE0145012000F0E1C6E200E12
:101D40001B6E0F0E1E6E100E1D6E0F0E206E1F6A84
:101D50000E010E0E226E800E216E0E0E246E900E5F
:101D6000236E0E0E266EA00E256E0E0E286EB00E81
:101D7000276E0E0E2A6EC00E296E0E0E2C6ED00E21
:101D80002B6E7250C00B2D6E2D6602D0020E01D04C
:101D9000080E2E6ED8907D31306E346A7CD034506F
:101DA000020DF3501B0FD96EDA6ADECF35F0DDCFAE
:101DB00036F035C031F036C032F0020E346404D053
:101DC000D890303230A066D035C0D9FF36C0DAFFA7
:101DD000DF501A6E1AB65ED035C0D9FF36C0DAFFB2
:101DE000FC0EDF1619C01AF0030E1A1635C0D9FF03
:101DF00036C0DAFF1A50DF1219AC04D0185040096F
:101E0000336E02D018C033F020EE05F03550D926DD
:101E10003650DA2233C0DFFF19AA03D0010E336E29
:101E200001D0336A3528086E000E3620096E12C0C4
:101E30000AF013C00BF014C00CF015C00DF033C045
:101E40000EF001EC10F0060E3526000E36222F6A39
:101E50000FD016C0D9FF17C0DAFF35C0E1FF36C07A
:101E6000E2FFDFCFE7FF164A172A354A362A2F2A24
:101E700018502F5CEEE331C0D9FF32C0DAFFDF50DB
:101E80001A6E1AB4010C31C0D9FF32C0DAFF000E4D
:101E9000DB86010C342A2E50345C81E3000C0AC02E
:101EA0000EF00B6646D00E50D96EDA6A08C0E1FF1C
:101EB00009C0E2FFE7500C6ED8900C36D8900C3673
:101EC000D8900C34DF6E0E50D96EDA6AD92ADA6AED
:101ED00008C0E1FF09C0E2FFE7500C6E050E0D6E71
:101EE000D8900C320D2EFCD70C50DF6E084A092A10
:101EF00008C0D9FF09C0DAFFDF500C6E050E0D6E69
:101F0000D8900C320D2EFCD70E50D96EDA6A0C50D8
:101F1000DF120E50D96EDA6A020ED926DA6ADF6A4B
:101F20000E50D96EDA6A030ED926DA6A000EDF6E19
:101F3000000C0E50D96EDA6A020ED926DA6A08C091
:101F4000E1FF09C0E2FFE7500C6E050E0D6ED89060
:101F50000C360D2EFCD70C50DF6E0E50D96EDA6A9F
:101F6000030ED926DA6A08C0E1FF09C0E2FFE75094
:101F70000C6ED8900C32D8900C32D8900C30DF6EAA
:101F8000084A092A08C0D9FF09C0DAFFDF500C6EE1
:101F9000030E0C160E50D96EDA6A020ED926DA6AD2
:101FA0000C50DF1208C0D9FF09C0DAFFDF500C6EF9
:101FB000D8900C32D8900C32D8900C321C0E0C16E3
:101FC0000E50D96EDA6A020ED926DA6A0C50DF1288
:101FD000084A092A08C0D9FF09C0DAFF0E50E16E8D
:101FE000E26AE12AE26ADFCFE7FF084A092A08C06D
:101FF000D9FF09C0DAFF0E50E16EE26ADFCFE7FFDA
:1020000012000A0E116E0E6637D01150D96EDA6AC0
:10201000DF500F6ED8900F32D8900F32D8900F301B
:1020200008C0D9FF09C0DAFFDF6E1150D96EDA6A35
:10203000D92ADA6ADF500F6E050E106ED8900F366F
:10204000102EFCD708C0D9FF09C0DAFF0F50DF12ED
:10205000084A092A1150D96EDA6ADF500F6E050E50
:10206000106ED8900F36102EFCD70F5008C0D9FF35
:1020700009C0DAFFDF6E12001150D96EDA6A020E63
:10208000D926DA6ADF500F6E050E106ED8900F3227
:10209000102EFCD70F5008C0D9FF09C0DAFFDF6E41
:1020A0001150D96EDA6A030ED926DA6ADF500F6E44
:1020B000D8900F36D8900F36D8900F3608C0D9FF79
:1020C00009C0DAFF0F50DF12084A092A1150D96EF1
:1020D000DA6A020ED926DA6ADF500F6ED8900F3610
:1020E000D8900F36D8900F34E00B08C0D9FF09C044
:1020F000DAFFDF6E08C0D9FF09C0DAFF000EDB8609
:102100001150D96EDA6A020ED926DA6ADF500F6EE4
:10211000030E0F1608C0D9FF09C0DAFF0F50DF12F7
:10212000084A092A1150D96EDA6AD92ADA6A08C02F
:10213000E1FF09C0E2FFDFCFE7FF084A092A11509B
:10214000D96EDA6A08C0E1FF09C0E2FFDFCFE7FF1E
:102150001200E8CF17F0151C166E5350521076E19E
:1021600017660FD0C0EC18F0096A210E086E15C072
:102170000AF06CEC16F0096A210E086E21EC18F0DA
:102180007FD017040FE1C0EC18F0096A220E086E28
:1021900015C00AF06CEC16F0096A220E086E21ECEC
:1021A00018F06ED0040E176418D0170E176015D0F3
:1021B000C0EC18F0210E1724086E096A000E0922DF
:1021C00015C00AF06CEC16F0210E1724086E096A8F
:1021D000000E092221EC18F053D01750020A0FE12B
:1021E000C0EC18F0096A230E086E15C00AF06CECFA
:1021F00016F015C011F0000ED7EC0DF041D01750BD
:10220000030A0FE1C0EC18F0096A240E086E15C02D
:102210000AF06CEC16F015C011F0010ED7EC0DF0C1
:102220002FD01750040A2DE1C0EC18F0096A250ED2
:10223000086E15C00AF06CEC16F015C011F0020E15
:10224000D7EC0DF0166E030E16161BD05204531069
:1022500018E1410E176015D0C0EC18F0380E1724A5
:10226000086E096A000E092215C00AF06CEC16F01F
:10227000380E1724086E096A000E092221EC18F0A6
:10228000166E1650120089EC16F0AAEC17F0000931
:1022900004E18FEC13F083EC18F00AEC16F0096AF5
:1022A000230E086E21EC18F0116E000ED7EC0DF025
:1022B000096A240E086E21EC18F0116E010ED7EC9D
:1022C0000DF0096A250E086E21EC18F0116E020E51
:1022D000D7EC0DF00400FA0E00016E650ED071050A
:1022E0000CE07069C0EC18F0096A010E086EFF0E70
:1022F0000A686CEC16F00AEC16F0756BECEC16F054
:102300001CD0702903E1010E716F23D0030E716F91
:10231000E7EC17F01ED0F4EC13F01BD075AF19D01A
:1023200078517711D8B491EC07F0AAEC0AF011D0EB
:10233000C3EC18F00ED0716B0CD000017151E1E0CC
:10234000010AE9E0030AE4E0010AE8E0070AF0E034
:10235000F2D7E90E0001605D030E6159000E62596B
:10236000000E63590CE3606B616B626B636B552A03
:10237000E2EC15F07151030AD8B4C6EC18F03B0E2C
:102380006A650BD06A6B692B3B0E696502D0696B7D
:10239000682B170E686501D0686BC5EC18F09AD7EA
:1023A000E8CF16F0101C156E830E16640ED0890E41
:1023B00016600BD010C00CF016507C0F05EC18F016
:1023C00016507C0F6FEC18F069D01650920A0DE190
:1023D0001050126E116A5250136E146A1110526E20
:1023E00012501410536E535059D01650930A0BE1EB
:1023F000116A5350126E10501110526E1250536EDB
:1024000052C015F04ED0880E166419D0910E166089
:1024100016D053C011F011C012F0136A122802E155
:10242000522802E0101C3AD010C00CF01650770F62
:1024300064EC17F01650770F65EC18F02FD0CF0E24
:10244000166417D0E00E166014D053C011F011C0FE
:1024500012F0136A1228E6E15228E4E110C00CF0F1
:102460001650300F76EC17F01650300F79EC18F04C
:1024700015D01650A20AD6E11050550A04E1646B3B
:10248000656B550E0BD01050AA0A0BE1E80E645D87
:10249000030E655905E2BCEC18F0AA0E156E01D0CA
:1024A000156A15501200E8CF0FF0106A60D0823420
:1024B000E836010B086E8238E832E832010B020D73
:1024C000F3CF09F08230E832E832010B040DF3CF8C
:1024D0000AF08238010B080DF3CF0BF08238E83296
:1024E000010B100DF3CF0CF08050010B200DF3CF3A
:1024F0000DF08030010B400DF3CF0EF08030E8324C
:10250000010B800DF3500E240D241FD08030E832D3
:10251000E832010B086E8038E832010B020DF3CF70
:1025200009F08138010B100DF3CF0AF08230E83248
:10253000010B200DF3CF0BF08130010B400DF3CFD9
:102540000CF08150010B800DF3500C240B240A2455
:1025500009240AD08138E832E832010B086E81384C
:10256000E832010B020DF3500824106E06D00F5014
:102570009EE0010ACBE0030AEDE0105012004FAEDE
:102580000DD04F9E230E4F24086E096A000E0922BB
:1025900021EC18F000017D19D8A41200030E4F6041
:1025A00001D0030C140E4F6401D0140C140EA46F50
:1025B000040EA56F4F50B7EC15F020D0829E12008C
:1025C000829C12008296120082981200829A120057
:1025D0008090120080921200809412008096120067
:1025E000809A120081981200829412008192120047
:1025F00081901200819C1200819A12004F50030AB0
:10260000DDE0070ADDE0010ADDE0030ADDE0010AA2
:10261000DDE00F0ADDE0010ADDE0030ADDE0010A8A
:10262000DDE0070ADDE0010AD8B41200030AD8B4DD
:102630001200010AD7E01F0AD7E0010AD7E0030A17
:10264000D7E0010AD7E0070AD8A41200D5D74FAEC9
:102650000DD04F9E230E4F24086E096A000E0922EA
:1026600021EC18F000017D19D8A41200030E4F6070
:1026700001D0030C140E4F6401D0140C140EA46F7F
:10268000030EA56F4F50B7EC15F020D0828E1200CC
:10269000828C12008286120082881200828A1200C6
:1026A00080801200808212008084120080861200D6
:1026B000808A1200818812008284120081821200B6
:1026C00081801200818C1200818A12004F50030A0F
:1026D000DDE0070ADDE0010ADDE0030ADDE0010AD2
:1026E000DDE00F0ADDE0010ADDE0030ADDE0010ABA
:1026F000DDE0070ADDE0010AD8B41200030AD8B40D
:102700001200010AD7E01F0AD7E0010AD7E0030A46
:10271000D7E0010AD7E0070AD8A41200D5D7C0EC49
:1027200018F0096A210E086E000E0A6A6CEC16F0A9
:10273000C0EC18F0096A220E086E000E0A6A6CECF2
:1027400016F0030E0F6EC0EC18F0230E0F24086E67
:10275000096A000E09220FC00AF06CEC16F00F2A6D
:10276000140E0F64F0D7C0EC18F0096A230E086E3F
:10277000000E0A6A6CEC16F0C0EC18F0096A240E20
:10278000086E000E0A6A6CEC16F0C0EC18F0096ACC
:10279000250E086E000E0A6A6CEC16F00F6A0E6ABF
:1027A000C0EC18F00E500FC00CF00D6AD8900C362B
:1027B0000D36D8900C360D36D8900C360D360C26CA
:1027C000000E0D22380E0C24086E000E0D20096E2E
:1027D000000E0A6A6CEC16F00E2A070E0E64E0D7A3
:1027E0000F2A0F64DCD7070C53D0572810E0810E56
:1027F000836F846B856B866B020E876F57C088F082
:102800003EEC17F0010E726F666B676B48D0040EDA
:10281000716F810E836F8869070E846F856B866B7D
:10282000030E876F3EEC17F03AD075AF0FD078519A
:10283000771135E17951030A32E1576603D0020E70
:10284000716FE2D7572A726B736B29D0E90E665D00
:10285000030E675924E3732B020E736517D0576676
:1028600005D0572A726B666B676BEED757C070F056
:10287000030E716F726B70515AEC18F0400E4FECF2
:1028800018F00001736BE7EC17F009D0726B07D0FA
:1028900000017251AAE0010AC8E0030AF7E1756B72
:1028A000120041C090F0916B926B936B92C093F0C9
:1028B00091C092F090C091F0906B3F50946F405057
:1028C000956F966B976B95C097F094C096F0956B4B
:1028D000946B43C098F0996B9A6B9B6B1A0ED890CF
:1028E000983799379A379B37E82EF9D79451981132
:1028F0009C6F955199119D6F96519A119E6F9751AA
:102900009B119F6F90519C11A06F91519D11A16FD0
:1029100092519E11A26F93519F11A36F4250A0112B
:10292000476EA151486EA251496EA3514A6E47C0ED
:1029300037F048C038F049C039F04AC03AF044C0D6
:102940003BF045C03CF046C03DF04CEC16F00009B1
:1029500001E1000C010CE8CF12F0116A5350521043
:1029600037E1126606D0096A210E086E21EC18F0D4
:102970003DD0120406E1096A220E086E21EC18F01F
:1029800035D0040E12640CD0170E126009D0210E3F
:102990001224086E096A000E092221EC18F026D0D4
:1029A0001250020A04E1000E53EC12F01FD0125034
:1029B000030A04E1010E53EC12F018D01250040A7D
:1029C00016E1020E53EC12F0116E030E11160FD029
:1029D000520453100CE1410E126009D0380E12243B
:1029E000086E096A000E092221EC18F0116E1150D0
:1029F0001200800E2DEC18F0090E0E01436FFC0E34
:102A0000446F010E456F200E706E728E729C606A6C
:102A10000F01306B0E01806B906BA06BB06BC06BC5
:102A2000D06BE00E7D6FE06B080EE16FE26BE36B45
:102A3000E46B080EE56FE66BE76B030E466F476BC2
:102A4000716B110E726F736F746B756B766B776B46
:102A5000786B540E796F050E7A6F7B6B7B6B0F0E64
:102A6000F86FE00EF96FFA6BFB6BF987FC6BFD6B8F
:102A7000FE6BFF6BFD87000E2DEF18F0E8CF0BF01B
:102A800028D00F0E0D6E600E22D00F010F0E0D6EAE
:102A9000300E1DD00E010E0E0D6E800E18D00E01E0
:102AA0000E0E0D6E900E13D00E010E0E0D6EA00EBA
:102AB0000ED00E010E0E0D6EB00E09D00E010E0ED0
:102AC0000D6EC00E04D00E010E0E0D6ED00E0C6EEB
:102AD0000FD00B50D6E0010AD8E0030ADBE0010A70
:102AE000DEE0070AE1E0010AE4E0030AE7E0EBD7F1
:102AF0000CC008F00DC009F01200E8CF27F021C08B
:102B00001AF022C01BF0280E51EC17F0000901E169
:102B1000000C1F50D96EDA6A28C0DFFF1E50D96E34
:102B2000DA6A29C0DFFF2A50236E010E2B14246EAF
:102B30002750D96EDA6A23C0DEFF24C0DDFF2050A3
:102B4000D96EDA6A28C023F029C024F02AC025F003
:102B50002BC026F01B0E05D0D89026322532243209
:102B60002332E82EF9D72350070BDF6E010CE8CF94
:102B70004EF0030E4E5E4EC04BF0096A210E086EF9
:102B800021EC18F04C6E260E4E24086E096A000ED9
:102B9000092221EC18F04D6E0001A4C03FF0406AFC
:102BA000A5C041F070C042F0030E436E446E4B0E60
:102BB000456E000E466E0F0E466E5F0E4564466A09
:102BC00051EF14F0742B3B0E74650DD0746B6F2BAA
:102BD0007151030A08E19EEC18F00001A46FA3EC08
:102BE00018F02BEC17F03B0E6F6502D06F6B6D2B5E
:102BF000170E6D6501D06D6B7151030AD8A41200D8
:102C00006C2B6CC04DF00F0E4D16020E4D5CD8B003
:102C10006C6B1200020E566EB2EC18F00001706F71
:102C2000706701D07069756B766B776B786B796BB9
:102C3000836B846B856B866B876B6B6B576A716B71
:102C4000726B736B526A536A666B676B646B656B0E
:102C5000746B6F6B6D6B1200B7EC18F0000918E124
:102C6000000175510F0B050AD8A41200B7EC18F03B
:102C700000017B19D8B412007B514FEC18F0000111
:102C80007069FF0E5AEC18F0010E0001716F010C13
:102C900000017B514FEF18F03E6A556A17D037C0DC
:102CA00012F038C013F039C014F03AC015F03CC02F
:102CB00016F03DC017F03BC018F0200E196E9DECC9
:102CC0000EF0000903E0010E3E6E02D05550E7E021
:102CD0000001836B3E5012000950030B756E08C053
:102CE00074FF0AC073FF7F9E7F9C7F84000EF2BE3C
:102CF000010E0B6EF29E550E7E6EAA0E7E6E7F82C8
:102D00007FB2FED70BB002D0F29E01D0F28E7F943C
:102D1000120083EC18F00F015D6B5C6B926A806AA5
:102D20000C0E936E816A010E946E826A920EF6EC1E
:102D300017F0FB0E096E1D0E086E8CEC18F0F9EC06
:102D400014F0F28CF28E1200806A816A826A516AF3
:102D5000030E506E140EA46F040EA56F5050B7EC06
:102D600015F0504A512A5150800A800F150ED8B4E0
:102D7000505CD8B01200EED7806881688268516AD2
:102D8000030E506E140EA46F030EA56F5050B7ECD7
:102D900015F0504A512A5150800A800F150ED8B4B0
:102DA000505CD8B01200EED775510F0B0D6E0D5060
:102DB000D8B41200705120EE7BF0DF6212000D04D7
:102DC00005E0010E0D64010C7C67010C7069FF0EBB
:102DD0005AEC18F00AEF16F075BF1200790E1E6E4D
:102DE0007A0E1F6E760E206E750E216E7B0E226E91
:102DF000770E7DEC15F02C6E2C50D8B4120000012B
:102E0000758F120075C04CF00F0E4C164C04D8A4F0
:102E10001200705120EE7BF0DF621200800E836F93
:102E2000846B856B866B030E876F3EEF17F0E8CFE0
:102E300009F0080E0A6E0B6AD89009340B340B6E39
:102E4000D890093608500B5C02E308500B5E0A2E3E
:102E5000F3D70B501200E8CF4CF0830E0001836FC4
:102E6000070E846F866B140E856F090E876F886B53
:102E70004CC089F0A4C08AF03EEF17F085C03FF047
:102E800086C040F087C041F070C042F084C043F07B
:102E900083510F0B446E000E466E880E456E51EF47
:102EA00014F0E8CF1CF075BF000C1BC00FF01AC067
:102EB00010F01D0E116E1C5004EC0CF00009F4E033
:102EC0001DAC1DAA000C010CE8CF0DF0070E0D641F
:102ED00001D0070CC0EC18F0090E0D24086E096A29
:102EE000000E09220CC00AF06CEF16F0E8CF0DF0CE
:102EF0000F0E0D6401D00F0CC0EC18F0110E0D2454
:102F0000086E096A000E09220CC00AF06CEF16F078
:102F100075510F0B020AD8A41200705120EE7BF0FD
:102F2000DF6212007CC070F070515AEC18F0400E55
:102F30004FEF18F0070E886F480E896F020E086E6B
:102F40000850880FD96EDA6ADF6A082A070E08640B
:102F5000F7D7070CB7EC18F0C00B400A01E1010CE1
:102F6000FF0E5AEC18F0000E4FEC18F0A00E44ECD7
:102F700018F0000C00EE60F0300EEE6AE806FDE19D
:102F800000EE52F0070EEE6AE806FDE1000143EFA5
:102F900011F0E8CF19F07F0E196405D018C010F0B9
:102FA0001950D0EF11F018C015F01950A9EF10F01A
:102FB000E8CF0CF00C04D8A41200C0EC18F0096A99
:102FC000086AFF0E0A686CEC16F0FF001200810E12
:102FD0000001836F846B856B866B020E876F70C0F8
:102FE00088F03EEC17F0010E566E010CE8CF08F0A9
:102FF00008507F0BD56ED76AD66AF29408AE02D01D
:10300000F28A01D0F29AD58E1200E8CF0DF0C0EC12
:1030100018F0040E0D24086E096A000E09220CC077
:103020000AF06CEF16F0E8CF09F00950000F086EB7
:1030300008C0F6FF0F0EF76E000EF86E0800F55090
:1030400012000950030B756E08C074FF7F9C7F9EB1
:103050007F8000F000F073501200E8CF08F01F0EE0
:103060006F1608506F126F50E00B0818D8B412009A
:10307000FAD7E8CF1DF07F0E1D6403D01D5000EF7E
:103080000DF01D50ABEF14F0E8CF0CF0C0EC18F0D1
:10309000096A030E086E0CC00AF06CEF16F0E8CF58
:1030A0000CF0C0EC18F0096A020E086E0CC00AF0B1
:1030B0006CEF16F0E8CF0CF0C0EC18F0096A010EC6
:1030C000086E0CC00AF06CEF16F0E8CF0AF0090E9B
:1030D0000A24086E096A000E092221EF18F0E8CFD1
:1030E0000AF0040E0A24086E096A000E092221EF74
:1030F00018F0E8CF0AF0110E0A24086E096A000ED3
:10310000092221EF18F00001606B616B626B636B49
:103110006A6B696B686B120008C00AF009C00BF09B
:103120000BC0D7FF0AC0D6FF120001C003F002C0D7
:1031300004F004C0D7FF03C0D6FF1200096A220EB4
:10314000086E21EF18F0096A210E086E21EF18F0C1
:10315000086A096A0A6A0B6A1200086A096A0A6A36
:103160000B6A1200096A010E086E21EF18F0096A55
:10317000020E086E21EF18F08FEC13F083EF18F0B9
:103180007FA21200FDD7566A120012001200010C35
:0A319000080C010C000C000C010CEF
:020000040020DA
:08000000FFFFFFFFFFFFFFFF00
:020000040030CA
:0E00000015126F7EFF8991FF0FC00FE00F40B9
:00000001FF
